{
  "_format": "hh-sol-artifact-1",
  "contractName": "Bridge",
  "sourceName": "contracts/Bridge.sol",
  "abi": [
    {
      "inputs": [
        {
          "internalType": "address[]",
          "name": "_signers",
          "type": "address[]"
        },
        {
          "internalType": "contract IWETH",
          "name": "_WETH",
          "type": "address"
        }
      ],
      "stateMutability": "nonpayable",
      "type": "constructor"
    },
    {
      "anonymous": false,
      "inputs": [
        {
          "indexed": true,
          "internalType": "contract ERC20",
          "name": "token",
          "type": "address"
        },
        {
          "indexed": false,
          "internalType": "bytes32",
          "name": "ellipticoinAddress",
          "type": "bytes32"
        },
        {
          "indexed": false,
          "internalType": "uint256",
          "name": "amount",
          "type": "uint256"
        }
      ],
      "name": "Mint",
      "type": "event"
    },
    {
      "anonymous": false,
      "inputs": [
        {
          "indexed": true,
          "internalType": "address",
          "name": "previousOwner",
          "type": "address"
        },
        {
          "indexed": true,
          "internalType": "address",
          "name": "newOwner",
          "type": "address"
        }
      ],
      "name": "OwnershipTransferred",
      "type": "event"
    },
    {
      "inputs": [],
      "name": "WETH",
      "outputs": [
        {
          "internalType": "contract IWETH",
          "name": "",
          "type": "address"
        }
      ],
      "stateMutability": "view",
      "type": "function"
    },
    {
      "inputs": [],
      "name": "_WELC",
      "outputs": [
        {
          "internalType": "contract WELC",
          "name": "",
          "type": "address"
        }
      ],
      "stateMutability": "view",
      "type": "function"
    },
    {
      "inputs": [],
      "name": "getSigners",
      "outputs": [
        {
          "internalType": "address[]",
          "name": "",
          "type": "address[]"
        }
      ],
      "stateMutability": "view",
      "type": "function"
    },
    {
      "inputs": [
        {
          "internalType": "contract ERC20",
          "name": "token",
          "type": "address"
        },
        {
          "internalType": "bytes32",
          "name": "ellipticoinAddress",
          "type": "bytes32"
        },
        {
          "internalType": "uint256",
          "name": "amount",
          "type": "uint256"
        }
      ],
      "name": "mint",
      "outputs": [],
      "stateMutability": "nonpayable",
      "type": "function"
    },
    {
      "inputs": [
        {
          "internalType": "bytes32",
          "name": "ellipticoinAddress",
          "type": "bytes32"
        }
      ],
      "name": "mintWETH",
      "outputs": [],
      "stateMutability": "payable",
      "type": "function"
    },
    {
      "inputs": [],
      "name": "owner",
      "outputs": [
        {
          "internalType": "address",
          "name": "",
          "type": "address"
        }
      ],
      "stateMutability": "view",
      "type": "function"
    },
    {
      "inputs": [
        {
          "internalType": "uint256",
          "name": "",
          "type": "uint256"
        }
      ],
      "name": "redeemedTransactions",
      "outputs": [
        {
          "internalType": "bool",
          "name": "",
          "type": "bool"
        }
      ],
      "stateMutability": "view",
      "type": "function"
    },
    {
      "inputs": [
        {
          "internalType": "contract ERC20",
          "name": "token",
          "type": "address"
        },
        {
          "internalType": "address",
          "name": "to",
          "type": "address"
        },
        {
          "internalType": "uint256",
          "name": "amount",
          "type": "uint256"
        },
        {
          "internalType": "uint32",
          "name": "foreignTransactionId",
          "type": "uint32"
        },
        {
          "internalType": "bytes[]",
          "name": "signatures",
          "type": "bytes[]"
        }
      ],
      "name": "release",
      "outputs": [],
      "stateMutability": "nonpayable",
      "type": "function"
    },
    {
      "inputs": [
        {
          "internalType": "address",
          "name": "to",
          "type": "address"
        },
        {
          "internalType": "uint256",
          "name": "amount",
          "type": "uint256"
        },
        {
          "internalType": "uint32",
          "name": "foreignTransactionId",
          "type": "uint32"
        },
        {
          "internalType": "bytes[]",
          "name": "signatures",
          "type": "bytes[]"
        }
      ],
      "name": "releaseWETH",
      "outputs": [],
      "stateMutability": "nonpayable",
      "type": "function"
    },
    {
      "inputs": [],
      "name": "renounceOwnership",
      "outputs": [],
      "stateMutability": "nonpayable",
      "type": "function"
    },
    {
      "inputs": [
        {
          "internalType": "address[]",
          "name": "_signers",
          "type": "address[]"
        }
      ],
      "name": "setSigners",
      "outputs": [],
      "stateMutability": "nonpayable",
      "type": "function"
    },
    {
      "inputs": [
        {
          "internalType": "uint256",
          "name": "",
          "type": "uint256"
        }
      ],
      "name": "signers",
      "outputs": [
        {
          "internalType": "address",
          "name": "",
          "type": "address"
        }
      ],
      "stateMutability": "view",
      "type": "function"
    },
    {
      "inputs": [
        {
          "internalType": "address",
          "name": "newOwner",
          "type": "address"
        }
      ],
      "name": "transferOwnership",
      "outputs": [],
      "stateMutability": "nonpayable",
      "type": "function"
    },
    {
      "stateMutability": "payable",
      "type": "receive"
    }
  ],
  "bytecode": "0x60c06040523480156200001157600080fd5b5060405162004d4738038062004d47833981810160405281019062000037919062000349565b600062000049620001ac60201b60201c565b9050806000806101000a81548173ffffffffffffffffffffffffffffffffffffffff021916908373ffffffffffffffffffffffffffffffffffffffff1602179055508073ffffffffffffffffffffffffffffffffffffffff16600073ffffffffffffffffffffffffffffffffffffffff167f8be0079c531659141344cd1fd0a4f28419497f9722a3daafe3b4186f6b6457e060405160405180910390a3508160019080519060200190620000ff929190620001b4565b508073ffffffffffffffffffffffffffffffffffffffff1660808173ffffffffffffffffffffffffffffffffffffffff1660601b81525050604051620001459062000243565b620001509062000427565b604051809103906000f0801580156200016d573d6000803e3d6000fd5b5073ffffffffffffffffffffffffffffffffffffffff1660a08173ffffffffffffffffffffffffffffffffffffffff1660601b81525050505062000542565b600033905090565b82805482825590600052602060002090810192821562000230579160200282015b828111156200022f5782518260006101000a81548173ffffffffffffffffffffffffffffffffffffffff021916908373ffffffffffffffffffffffffffffffffffffffff16021790555091602001919060010190620001d5565b5b5090506200023f919062000251565b5090565b612443806200290483390190565b5b808211156200028a57600081816101000a81549073ffffffffffffffffffffffffffffffffffffffff02191690555060010162000252565b5090565b6000815190506200029f816200050e565b92915050565b600082601f830112620002b757600080fd5b8151620002ce620002c8826200048c565b6200045e565b91508181835260208401935060208101905083856020840282011115620002f457600080fd5b60005b838110156200032857816200030d88826200028e565b845260208401935060208301925050600181019050620002f7565b5050505092915050565b600081519050620003438162000528565b92915050565b600080604083850312156200035d57600080fd5b600083015167ffffffffffffffff8111156200037857600080fd5b6200038685828601620002a5565b9250506020620003998582860162000332565b9150509250929050565b6000620003b2600483620004b5565b91507f57454c43000000000000000000000000000000000000000000000000000000006000830152602082019050919050565b6000620003f4601383620004b5565b91507f5772617070656420456c6c69707469636f696e000000000000000000000000006000830152602082019050919050565b600060408201905081810360008301526200044281620003e5565b905081810360208301526200045781620003a3565b9050919050565b6000604051905081810181811067ffffffffffffffff821117156200048257600080fd5b8060405250919050565b600067ffffffffffffffff821115620004a457600080fd5b602082029050602081019050919050565b600082825260208201905092915050565b6000620004d382620004ee565b9050919050565b6000620004e782620004c6565b9050919050565b600073ffffffffffffffffffffffffffffffffffffffff82169050919050565b6200051981620004c6565b81146200052557600080fd5b50565b6200053381620004da565b81146200053f57600080fd5b50565b60805160601c60a05160601c6123676200059d6000398061046152806104b552806108ce5280610ce45280610d3852508060cd528061072c52806107ad528061085b5280610a785280610a9f5280610ac952506123676000f3fe6080604052600436106100c65760003560e01c80638f3544f81161007f578063ad5c464811610059578063ad5c4648146102a7578063c27ccff7146102d2578063c89dcfce146102fb578063f2fde38b1461032457610122565b80638f3544f81461021657806394cf795e14610253578063a37726621461027e57610122565b80632079fb9a14610127578063430ec0e114610164578063715018a61461018d5780638621e26d146101a45780638bc1027b146101c05780638da5cb5b146101eb57610122565b36610122577f000000000000000000000000000000000000000000000000000000000000000073ffffffffffffffffffffffffffffffffffffffff163373ffffffffffffffffffffffffffffffffffffffff161461012057fe5b005b600080fd5b34801561013357600080fd5b5061014e600480360381019061014991906117a9565b61034d565b60405161015b9190611cdb565b60405180910390f35b34801561017057600080fd5b5061018b600480360381019061018691906116cb565b610389565b005b34801561019957600080fd5b506101a26105d7565b005b6101be60048036038101906101b991906116a2565b61072a565b005b3480156101cc57600080fd5b506101d56108cc565b6040516101e29190611e45565b60405180910390f35b3480156101f757600080fd5b506102006108f0565b60405161020d9190611cdb565b60405180910390f35b34801561022257600080fd5b5061023d600480360381019061023891906117a9565b610919565b60405161024a9190611da1565b60405180910390f35b34801561025f57600080fd5b50610268610939565b6040516102759190611d7f565b60405180910390f35b34801561028a57600080fd5b506102a560048036038101906102a09190611638565b6109c7565b005b3480156102b357600080fd5b506102bc610a76565b6040516102c99190611e2a565b60405180910390f35b3480156102de57600080fd5b506102f960048036038101906102f491906115bd565b610a9a565b005b34801561030757600080fd5b50610322600480360381019061031d919061175a565b610c52565b005b34801561033057600080fd5b5061034b60048036038101906103469190611594565b610e17565b005b6001818154811061035a57fe5b906000526020600020016000915054906101000a900473ffffffffffffffffffffffffffffffffffffffff1681565b600260008363ffffffff16815260200190815260200160002060009054906101000a900460ff16156103f0576040517f08c379a00000000000000000000000000000000000000000000000000000000081526004016103e790611f80565b60405180910390fd5b6001600260008463ffffffff16815260200190815260200160002060006101000a81548160ff0219169083151502179055506000853385853060405160200161043d959493929190611c65565b60405160208183030381529060405280519060200120905061045f8183610fd9565b7f000000000000000000000000000000000000000000000000000000000000000073ffffffffffffffffffffffffffffffffffffffff168673ffffffffffffffffffffffffffffffffffffffff161415610541577f000000000000000000000000000000000000000000000000000000000000000073ffffffffffffffffffffffffffffffffffffffff166340c10f1930866040518363ffffffff1660e01b815260040161050e929190611d2d565b600060405180830381600087803b15801561052857600080fd5b505af115801561053c573d6000803e3d6000fd5b505050505b8573ffffffffffffffffffffffffffffffffffffffff1663a9059cbb86866040518363ffffffff1660e01b815260040161057c929190611d56565b602060405180830381600087803b15801561059657600080fd5b505af11580156105aa573d6000803e3d6000fd5b505050506040513d601f19601f820116820180604052508101906105ce9190611679565b50505050505050565b6105df61110d565b73ffffffffffffffffffffffffffffffffffffffff1660008054906101000a900473ffffffffffffffffffffffffffffffffffffffff1673ffffffffffffffffffffffffffffffffffffffff161461066c576040517f08c379a000000000000000000000000000000000000000000000000000000000815260040161066390611f60565b60405180910390fd5b600073ffffffffffffffffffffffffffffffffffffffff1660008054906101000a900473ffffffffffffffffffffffffffffffffffffffff1673ffffffffffffffffffffffffffffffffffffffff167f8be0079c531659141344cd1fd0a4f28419497f9722a3daafe3b4186f6b6457e060405160405180910390a360008060006101000a81548173ffffffffffffffffffffffffffffffffffffffff021916908373ffffffffffffffffffffffffffffffffffffffff160217905550565b7f000000000000000000000000000000000000000000000000000000000000000073ffffffffffffffffffffffffffffffffffffffff1663d0e30db0346040518263ffffffff1660e01b81526004016000604051808303818588803b15801561079257600080fd5b505af11580156107a6573d6000803e3d6000fd5b50505050507f000000000000000000000000000000000000000000000000000000000000000073ffffffffffffffffffffffffffffffffffffffff1663a9059cbb30346040518363ffffffff1660e01b8152600401610806929190611d2d565b602060405180830381600087803b15801561082057600080fd5b505af1158015610834573d6000803e3d6000fd5b505050506040513d601f19601f820116820180604052508101906108589190611679565b507f000000000000000000000000000000000000000000000000000000000000000073ffffffffffffffffffffffffffffffffffffffff167f103a2d32aec953695f3b9ec5ed6c1c6cb822debe92cf1fcf0832cb2c262c7eec82346040516108c1929190611dbc565b60405180910390a250565b7f000000000000000000000000000000000000000000000000000000000000000081565b60008060009054906101000a900473ffffffffffffffffffffffffffffffffffffffff16905090565b60026020528060005260406000206000915054906101000a900460ff1681565b606060018054806020026020016040519081016040528092919081815260200182805480156109bd57602002820191906000526020600020905b8160009054906101000a900473ffffffffffffffffffffffffffffffffffffffff1673ffffffffffffffffffffffffffffffffffffffff1681526020019060010190808311610973575b5050505050905090565b6109cf61110d565b73ffffffffffffffffffffffffffffffffffffffff1660008054906101000a900473ffffffffffffffffffffffffffffffffffffffff1673ffffffffffffffffffffffffffffffffffffffff1614610a5c576040517f08c379a0000000000000000000000000000000000000000000000000000000008152600401610a5390611f60565b60405180910390fd5b8060019080519060200190610a72929190611306565b5050565b7f000000000000000000000000000000000000000000000000000000000000000081565b610ac77f000000000000000000000000000000000000000000000000000000000000000030858585610389565b7f000000000000000000000000000000000000000000000000000000000000000073ffffffffffffffffffffffffffffffffffffffff16632e1a7d4d846040518263ffffffff1660e01b8152600401610b209190611fa0565b600060405180830381600087803b158015610b3a57600080fd5b505af1158015610b4e573d6000803e3d6000fd5b5050505060008473ffffffffffffffffffffffffffffffffffffffff1684600067ffffffffffffffff81118015610b8457600080fd5b506040519080825280601f01601f191660200182016040528015610bb75781602001600182028036833780820191505090505b50604051610bc59190611cc4565b60006040518083038185875af1925050503d8060008114610c02576040519150601f19603f3d011682016040523d82523d6000602084013e610c07565b606091505b5050905080610c4b576040517f08c379a0000000000000000000000000000000000000000000000000000000008152600401610c4290611ee0565b60405180910390fd5b5050505050565b8273ffffffffffffffffffffffffffffffffffffffff166323b872dd3330846040518463ffffffff1660e01b8152600401610c8f93929190611cf6565b602060405180830381600087803b158015610ca957600080fd5b505af1158015610cbd573d6000803e3d6000fd5b505050506040513d601f19601f82011682018060405250810190610ce19190611679565b507f000000000000000000000000000000000000000000000000000000000000000073ffffffffffffffffffffffffffffffffffffffff168373ffffffffffffffffffffffffffffffffffffffff161415610dc2577f000000000000000000000000000000000000000000000000000000000000000073ffffffffffffffffffffffffffffffffffffffff166342966c68826040518263ffffffff1660e01b8152600401610d8f9190611fa0565b600060405180830381600087803b158015610da957600080fd5b505af1158015610dbd573d6000803e3d6000fd5b505050505b8273ffffffffffffffffffffffffffffffffffffffff167f103a2d32aec953695f3b9ec5ed6c1c6cb822debe92cf1fcf0832cb2c262c7eec8383604051610e0a929190611dbc565b60405180910390a2505050565b610e1f61110d565b73ffffffffffffffffffffffffffffffffffffffff1660008054906101000a900473ffffffffffffffffffffffffffffffffffffffff1673ffffffffffffffffffffffffffffffffffffffff1614610eac576040517f08c379a0000000000000000000000000000000000000000000000000000000008152600401610ea390611f60565b60405180910390fd5b600073ffffffffffffffffffffffffffffffffffffffff168173ffffffffffffffffffffffffffffffffffffffff161415610f1c576040517f08c379a0000000000000000000000000000000000000000000000000000000008152600401610f1390611ec0565b60405180910390fd5b8073ffffffffffffffffffffffffffffffffffffffff1660008054906101000a900473ffffffffffffffffffffffffffffffffffffffff1673ffffffffffffffffffffffffffffffffffffffff167f8be0079c531659141344cd1fd0a4f28419497f9722a3daafe3b4186f6b6457e060405160405180910390a3806000806101000a81548173ffffffffffffffffffffffffffffffffffffffff021916908373ffffffffffffffffffffffffffffffffffffffff16021790555050565b805160018054905014611021576040517f08c379a000000000000000000000000000000000000000000000000000000000815260040161101890611f40565b60405180910390fd5b60005b600180549050811015611108576001818154811061103e57fe5b9060005260206000200160009054906101000a900473ffffffffffffffffffffffffffffffffffffffff1673ffffffffffffffffffffffffffffffffffffffff166110a583838151811061108e57fe5b60200260200101518561111590919063ffffffff16565b73ffffffffffffffffffffffffffffffffffffffff16146110fb576040517f08c379a00000000000000000000000000000000000000000000000000000000081526004016110f290611e80565b60405180910390fd5b8080600101915050611024565b505050565b600033905090565b6000604182511461115b576040517f08c379a000000000000000000000000000000000000000000000000000000000815260040161115290611ea0565b60405180910390fd5b60008060006020850151925060408501519150606085015160001a90507f7fffffffffffffffffffffffffffffff5d576e7357a4501ddfe92f46681b20a08260001c11156111de576040517f08c379a00000000000000000000000000000000000000000000000000000000081526004016111d590611f00565b60405180910390fd5b601b8160ff16141580156111f65750601c8160ff1614155b15611236576040517f08c379a000000000000000000000000000000000000000000000000000000000815260040161122d90611f20565b60405180910390fd5b60006001878386866040516000815260200160405260405161125b9493929190611de5565b6020604051602081039080840390855afa15801561127d573d6000803e3d6000fd5b505050602060405103519050600073ffffffffffffffffffffffffffffffffffffffff168173ffffffffffffffffffffffffffffffffffffffff1614156112f9576040517f08c379a00000000000000000000000000000000000000000000000000000000081526004016112f090611e60565b60405180910390fd5b8094505050505092915050565b82805482825590600052602060002090810192821561137f579160200282015b8281111561137e5782518260006101000a81548173ffffffffffffffffffffffffffffffffffffffff021916908373ffffffffffffffffffffffffffffffffffffffff16021790555091602001919060010190611326565b5b50905061138c9190611390565b5090565b5b808211156113c757600081816101000a81549073ffffffffffffffffffffffffffffffffffffffff021916905550600101611391565b5090565b6000813590506113da816122a7565b92915050565b600082601f8301126113f157600080fd5b81356114046113ff82611fe8565b611fbb565b9150818183526020840193506020810190508385602084028201111561142957600080fd5b60005b83811015611459578161143f88826113cb565b84526020840193506020830192505060018101905061142c565b5050505092915050565b600082601f83011261147457600080fd5b813561148761148282612010565b611fbb565b9150818183526020840193506020810190508360005b838110156114cd57813586016114b38882611501565b84526020840193506020830192505060018101905061149d565b5050505092915050565b6000815190506114e6816122be565b92915050565b6000813590506114fb816122d5565b92915050565b600082601f83011261151257600080fd5b813561152561152082612038565b611fbb565b9150808252602083016020830185838301111561154157600080fd5b61154c8382846121f9565b50505092915050565b600081359050611564816122ec565b92915050565b60008135905061157981612303565b92915050565b60008135905061158e8161231a565b92915050565b6000602082840312156115a657600080fd5b60006115b4848285016113cb565b91505092915050565b600080600080608085870312156115d357600080fd5b60006115e1878288016113cb565b94505060206115f28782880161156a565b93505060406116038782880161157f565b925050606085013567ffffffffffffffff81111561162057600080fd5b61162c87828801611463565b91505092959194509250565b60006020828403121561164a57600080fd5b600082013567ffffffffffffffff81111561166457600080fd5b611670848285016113e0565b91505092915050565b60006020828403121561168b57600080fd5b6000611699848285016114d7565b91505092915050565b6000602082840312156116b457600080fd5b60006116c2848285016114ec565b91505092915050565b600080600080600060a086880312156116e357600080fd5b60006116f188828901611555565b9550506020611702888289016113cb565b94505060406117138882890161156a565b93505060606117248882890161157f565b925050608086013567ffffffffffffffff81111561174157600080fd5b61174d88828901611463565b9150509295509295909350565b60008060006060848603121561176f57600080fd5b600061177d86828701611555565b935050602061178e868287016114ec565b925050604061179f8682870161156a565b9150509250925092565b6000602082840312156117bb57600080fd5b60006117c98482850161156a565b91505092915050565b60006117de8383611810565b60208301905092915050565b6117f381612157565b82525050565b61180a611805826120d6565b61224d565b82525050565b611819816120c4565b82525050565b611828816120c4565b82525050565b61183f61183a826120c4565b61223b565b82525050565b600061185082612074565b61185a8185612097565b935061186583612064565b8060005b8381101561189657815161187d88826117d2565b97506118888361208a565b925050600181019050611869565b5085935050505092915050565b6118ac816120e8565b82525050565b6118bb816120f4565b82525050565b60006118cc8261207f565b6118d681856120a8565b93506118e6818560208601612208565b80840191505092915050565b6119036118fe82612169565b61224d565b82525050565b6119128161218d565b82525050565b611921816121b1565b82525050565b60006119346018836120b3565b91507f45434453413a20696e76616c6964207369676e617475726500000000000000006000830152602082019050919050565b60006119746011836120b3565b91507f696e76616c6964207369676e61747572650000000000000000000000000000006000830152602082019050919050565b60006119b4601f836120b3565b91507f45434453413a20696e76616c6964207369676e6174757265206c656e677468006000830152602082019050919050565b60006119f46026836120b3565b91507f4f776e61626c653a206e6577206f776e657220697320746865207a65726f206160008301527f64647265737300000000000000000000000000000000000000000000000000006020830152604082019050919050565b6000611a5a6015836120b3565b91507f4574686572207472616e73666572206661696c656400000000000000000000006000830152602082019050919050565b6000611a9a6022836120b3565b91507f45434453413a20696e76616c6964207369676e6174757265202773272076616c60008301527f75650000000000000000000000000000000000000000000000000000000000006020830152604082019050919050565b6000611b006022836120b3565b91507f45434453413a20696e76616c6964207369676e6174757265202776272076616c60008301527f75650000000000000000000000000000000000000000000000000000000000006020830152604082019050919050565b6000611b66601c836120b3565b91507f696e76616c6964206e756d626572206f66207369676e617475726573000000006000830152602082019050919050565b6000611ba66020836120b3565b91507f4f776e61626c653a2063616c6c6572206973206e6f7420746865206f776e65726000830152602082019050919050565b6000611be6601c836120b3565b91507f696e76616c696420666f726569676e5472616e73616374696f6e4964000000006000830152602082019050919050565b611c2281612130565b82525050565b611c39611c3482612130565b612271565b82525050565b611c50611c4b8261213a565b61227b565b82525050565b611c5f8161214a565b82525050565b6000611c71828861182e565b601482019150611c8182876117f9565b601482019150611c918286611c28565b602082019150611ca18285611c3f565b600482019150611cb182846118f2565b6014820191508190509695505050505050565b6000611cd082846118c1565b915081905092915050565b6000602082019050611cf0600083018461181f565b92915050565b6000606082019050611d0b60008301866117ea565b611d1860208301856117ea565b611d256040830184611c19565b949350505050565b6000604082019050611d4260008301856117ea565b611d4f6020830184611c19565b9392505050565b6000604082019050611d6b600083018561181f565b611d786020830184611c19565b9392505050565b60006020820190508181036000830152611d998184611845565b905092915050565b6000602082019050611db660008301846118a3565b92915050565b6000604082019050611dd160008301856118b2565b611dde6020830184611c19565b9392505050565b6000608082019050611dfa60008301876118b2565b611e076020830186611c56565b611e1460408301856118b2565b611e2160608301846118b2565b95945050505050565b6000602082019050611e3f6000830184611909565b92915050565b6000602082019050611e5a6000830184611918565b92915050565b60006020820190508181036000830152611e7981611927565b9050919050565b60006020820190508181036000830152611e9981611967565b9050919050565b60006020820190508181036000830152611eb9816119a7565b9050919050565b60006020820190508181036000830152611ed9816119e7565b9050919050565b60006020820190508181036000830152611ef981611a4d565b9050919050565b60006020820190508181036000830152611f1981611a8d565b9050919050565b60006020820190508181036000830152611f3981611af3565b9050919050565b60006020820190508181036000830152611f5981611b59565b9050919050565b60006020820190508181036000830152611f7981611b99565b9050919050565b60006020820190508181036000830152611f9981611bd9565b9050919050565b6000602082019050611fb56000830184611c19565b92915050565b6000604051905081810181811067ffffffffffffffff82111715611fde57600080fd5b8060405250919050565b600067ffffffffffffffff821115611fff57600080fd5b602082029050602081019050919050565b600067ffffffffffffffff82111561202757600080fd5b602082029050602081019050919050565b600067ffffffffffffffff82111561204f57600080fd5b601f19601f8301169050602081019050919050565b6000819050602082019050919050565b600081519050919050565b600081519050919050565b6000602082019050919050565b600082825260208201905092915050565b600081905092915050565b600082825260208201905092915050565b60006120cf82612110565b9050919050565b60006120e182612110565b9050919050565b60008115159050919050565b6000819050919050565b6000612109826120c4565b9050919050565b600073ffffffffffffffffffffffffffffffffffffffff82169050919050565b6000819050919050565b600063ffffffff82169050919050565b600060ff82169050919050565b6000612162826121d5565b9050919050565b60006121748261217b565b9050919050565b600061218682612110565b9050919050565b60006121988261219f565b9050919050565b60006121aa82612110565b9050919050565b60006121bc826121c3565b9050919050565b60006121ce82612110565b9050919050565b60006121e0826121e7565b9050919050565b60006121f282612110565b9050919050565b82818337600083830152505050565b60005b8381101561222657808201518184015260208101905061220b565b83811115612235576000848401525b50505050565b60006122468261225f565b9050919050565b60006122588261225f565b9050919050565b600061226a8261229a565b9050919050565b6000819050919050565b60006122868261228d565b9050919050565b60008160e01b9050919050565b60008160601b9050919050565b6122b0816120c4565b81146122bb57600080fd5b50565b6122c7816120e8565b81146122d257600080fd5b50565b6122de816120f4565b81146122e957600080fd5b50565b6122f5816120fe565b811461230057600080fd5b50565b61230c81612130565b811461231757600080fd5b50565b6123238161213a565b811461232e57600080fd5b5056fea264697066735822122055c01cd18a1386a6e04e32d47b3e1806ab761b34a60944304563f2bae7335eab64736f6c634300060c003360806040523480156200001157600080fd5b506040516200244338038062002443833981810160405260408110156200003757600080fd5b81019080805160405193929190846401000000008211156200005857600080fd5b838201915060208201858111156200006f57600080fd5b82518660018202830111640100000000821117156200008d57600080fd5b8083526020830192505050908051906020019080838360005b83811015620000c3578082015181840152602081019050620000a6565b50505050905090810190601f168015620000f15780820380516001836020036101000a031916815260200191505b50604052602001805160405193929190846401000000008211156200011557600080fd5b838201915060208201858111156200012c57600080fd5b82518660018202830111640100000000821117156200014a57600080fd5b8083526020830192505050908051906020019080838360005b838110156200018057808201518184015260208101905062000163565b50505050905090810190601f168015620001ae5780820380516001836020036101000a031916815260200191505b5060405250505081818160039080519060200190620001cf929190620002e3565b508060049080519060200190620001e8929190620002e3565b506012600560006101000a81548160ff021916908360ff16021790555050506000600560016101000a81548160ff021916908315150217905550600062000234620002db60201b60201c565b905080600560026101000a81548173ffffffffffffffffffffffffffffffffffffffff021916908373ffffffffffffffffffffffffffffffffffffffff1602179055508073ffffffffffffffffffffffffffffffffffffffff16600073ffffffffffffffffffffffffffffffffffffffff167f8be0079c531659141344cd1fd0a4f28419497f9722a3daafe3b4186f6b6457e060405160405180910390a350505062000389565b600033905090565b828054600181600116156101000203166002900490600052602060002090601f016020900481019282601f106200032657805160ff191683800117855562000357565b8280016001018555821562000357579182015b828111156200035657825182559160200191906001019062000339565b5b5090506200036691906200036a565b5090565b5b80821115620003855760008160009055506001016200036b565b5090565b6120aa80620003996000396000f3fe608060405234801561001057600080fd5b506004361061012c5760003560e01c806370a08231116100ad57806395d89b411161007157806395d89b41146104d3578063a457c2d714610556578063a9059cbb146105ba578063dd62ed3e1461061e578063f2fde38b146106965761012c565b806370a08231146103e5578063715018a61461043d57806379cc6790146104475780638456cb59146104955780638da5cb5b1461049f5761012c565b806339509351116100f457806339509351146102db5780633f4ba83a1461033f57806340c10f191461034957806342966c68146103975780635c975abb146103c55761012c565b806306fdde0314610131578063095ea7b3146101b457806318160ddd1461021857806323b872dd14610236578063313ce567146102ba575b600080fd5b6101396106da565b6040518080602001828103825283818151815260200191508051906020019080838360005b8381101561017957808201518184015260208101905061015e565b50505050905090810190601f1680156101a65780820380516001836020036101000a031916815260200191505b509250505060405180910390f35b610200600480360360408110156101ca57600080fd5b81019080803573ffffffffffffffffffffffffffffffffffffffff1690602001909291908035906020019092919050505061077c565b60405180821515815260200191505060405180910390f35b61022061079a565b6040518082815260200191505060405180910390f35b6102a26004803603606081101561024c57600080fd5b81019080803573ffffffffffffffffffffffffffffffffffffffff169060200190929190803573ffffffffffffffffffffffffffffffffffffffff169060200190929190803590602001909291905050506107a4565b60405180821515815260200191505060405180910390f35b6102c261087d565b604051808260ff16815260200191505060405180910390f35b610327600480360360408110156102f157600080fd5b81019080803573ffffffffffffffffffffffffffffffffffffffff16906020019092919080359060200190929190505050610894565b60405180821515815260200191505060405180910390f35b610347610947565b005b6103956004803603604081101561035f57600080fd5b81019080803573ffffffffffffffffffffffffffffffffffffffff16906020019092919080359060200190929190505050610a1b565b005b6103c3600480360360208110156103ad57600080fd5b8101908080359060200190929190505050610af3565b005b6103cd610b07565b60405180821515815260200191505060405180910390f35b610427600480360360208110156103fb57600080fd5b81019080803573ffffffffffffffffffffffffffffffffffffffff169060200190929190505050610b1e565b6040518082815260200191505060405180910390f35b610445610b66565b005b6104936004803603604081101561045d57600080fd5b81019080803573ffffffffffffffffffffffffffffffffffffffff16906020019092919080359060200190929190505050610cf1565b005b61049d610d53565b005b6104a7610e27565b604051808273ffffffffffffffffffffffffffffffffffffffff16815260200191505060405180910390f35b6104db610e51565b6040518080602001828103825283818151815260200191508051906020019080838360005b8381101561051b578082015181840152602081019050610500565b50505050905090810190601f1680156105485780820380516001836020036101000a031916815260200191505b509250505060405180910390f35b6105a26004803603604081101561056c57600080fd5b81019080803573ffffffffffffffffffffffffffffffffffffffff16906020019092919080359060200190929190505050610ef3565b60405180821515815260200191505060405180910390f35b610606600480360360408110156105d057600080fd5b81019080803573ffffffffffffffffffffffffffffffffffffffff16906020019092919080359060200190929190505050610fc0565b60405180821515815260200191505060405180910390f35b6106806004803603604081101561063457600080fd5b81019080803573ffffffffffffffffffffffffffffffffffffffff169060200190929190803573ffffffffffffffffffffffffffffffffffffffff169060200190929190505050610fde565b6040518082815260200191505060405180910390f35b6106d8600480360360208110156106ac57600080fd5b81019080803573ffffffffffffffffffffffffffffffffffffffff169060200190929190505050611065565b005b606060038054600181600116156101000203166002900480601f0160208091040260200160405190810160405280929190818152602001828054600181600116156101000203166002900480156107725780601f1061074757610100808354040283529160200191610772565b820191906000526020600020905b81548152906001019060200180831161075557829003601f168201915b5050505050905090565b6000610790610789611275565b848461127d565b6001905092915050565b6000600254905090565b60006107b1848484611474565b610872846107bd611275565b61086d85604051806060016040528060288152602001611f7060289139600160008b73ffffffffffffffffffffffffffffffffffffffff1673ffffffffffffffffffffffffffffffffffffffff1681526020019081526020016000206000610823611275565b73ffffffffffffffffffffffffffffffffffffffff1673ffffffffffffffffffffffffffffffffffffffff168152602001908152602001600020546117359092919063ffffffff16565b61127d565b600190509392505050565b6000600560009054906101000a900460ff16905090565b600061093d6108a1611275565b8461093885600160006108b2611275565b73ffffffffffffffffffffffffffffffffffffffff1673ffffffffffffffffffffffffffffffffffffffff16815260200190815260200160002060008973ffffffffffffffffffffffffffffffffffffffff1673ffffffffffffffffffffffffffffffffffffffff168152602001908152602001600020546117f590919063ffffffff16565b61127d565b6001905092915050565b61094f611275565b73ffffffffffffffffffffffffffffffffffffffff16600560029054906101000a900473ffffffffffffffffffffffffffffffffffffffff1673ffffffffffffffffffffffffffffffffffffffff1614610a11576040517f08c379a00000000000000000000000000000000000000000000000000000000081526004018080602001828103825260208152602001807f4f776e61626c653a2063616c6c6572206973206e6f7420746865206f776e657281525060200191505060405180910390fd5b610a1961187d565b565b610a23611275565b73ffffffffffffffffffffffffffffffffffffffff16600560029054906101000a900473ffffffffffffffffffffffffffffffffffffffff1673ffffffffffffffffffffffffffffffffffffffff1614610ae5576040517f08c379a00000000000000000000000000000000000000000000000000000000081526004018080602001828103825260208152602001807f4f776e61626c653a2063616c6c6572206973206e6f7420746865206f776e657281525060200191505060405180910390fd5b610aef8282611970565b5050565b610b04610afe611275565b82611b37565b50565b6000600560019054906101000a900460ff16905090565b60008060008373ffffffffffffffffffffffffffffffffffffffff1673ffffffffffffffffffffffffffffffffffffffff168152602001908152602001600020549050919050565b610b6e611275565b73ffffffffffffffffffffffffffffffffffffffff16600560029054906101000a900473ffffffffffffffffffffffffffffffffffffffff1673ffffffffffffffffffffffffffffffffffffffff1614610c30576040517f08c379a00000000000000000000000000000000000000000000000000000000081526004018080602001828103825260208152602001807f4f776e61626c653a2063616c6c6572206973206e6f7420746865206f776e657281525060200191505060405180910390fd5b600073ffffffffffffffffffffffffffffffffffffffff16600560029054906101000a900473ffffffffffffffffffffffffffffffffffffffff1673ffffffffffffffffffffffffffffffffffffffff167f8be0079c531659141344cd1fd0a4f28419497f9722a3daafe3b4186f6b6457e060405160405180910390a36000600560026101000a81548173ffffffffffffffffffffffffffffffffffffffff021916908373ffffffffffffffffffffffffffffffffffffffff160217905550565b6000610d3082604051806060016040528060248152602001611f9860249139610d2186610d1c611275565b610fde565b6117359092919063ffffffff16565b9050610d4483610d3e611275565b8361127d565b610d4e8383611b37565b505050565b610d5b611275565b73ffffffffffffffffffffffffffffffffffffffff16600560029054906101000a900473ffffffffffffffffffffffffffffffffffffffff1673ffffffffffffffffffffffffffffffffffffffff1614610e1d576040517f08c379a00000000000000000000000000000000000000000000000000000000081526004018080602001828103825260208152602001807f4f776e61626c653a2063616c6c6572206973206e6f7420746865206f776e657281525060200191505060405180910390fd5b610e25611cfb565b565b6000600560029054906101000a900473ffffffffffffffffffffffffffffffffffffffff16905090565b606060048054600181600116156101000203166002900480601f016020809104026020016040519081016040528092919081815260200182805460018160011615610100020316600290048015610ee95780601f10610ebe57610100808354040283529160200191610ee9565b820191906000526020600020905b815481529060010190602001808311610ecc57829003601f168201915b5050505050905090565b6000610fb6610f00611275565b84610fb1856040518060600160405280602581526020016120266025913960016000610f2a611275565b73ffffffffffffffffffffffffffffffffffffffff1673ffffffffffffffffffffffffffffffffffffffff16815260200190815260200160002060008a73ffffffffffffffffffffffffffffffffffffffff1673ffffffffffffffffffffffffffffffffffffffff168152602001908152602001600020546117359092919063ffffffff16565b61127d565b6001905092915050565b6000610fd4610fcd611275565b8484611474565b6001905092915050565b6000600160008473ffffffffffffffffffffffffffffffffffffffff1673ffffffffffffffffffffffffffffffffffffffff16815260200190815260200160002060008373ffffffffffffffffffffffffffffffffffffffff1673ffffffffffffffffffffffffffffffffffffffff16815260200190815260200160002054905092915050565b61106d611275565b73ffffffffffffffffffffffffffffffffffffffff16600560029054906101000a900473ffffffffffffffffffffffffffffffffffffffff1673ffffffffffffffffffffffffffffffffffffffff161461112f576040517f08c379a00000000000000000000000000000000000000000000000000000000081526004018080602001828103825260208152602001807f4f776e61626c653a2063616c6c6572206973206e6f7420746865206f776e657281525060200191505060405180910390fd5b600073ffffffffffffffffffffffffffffffffffffffff168173ffffffffffffffffffffffffffffffffffffffff1614156111b5576040517f08c379a0000000000000000000000000000000000000000000000000000000008152600401808060200182810382526026815260200180611f026026913960400191505060405180910390fd5b8073ffffffffffffffffffffffffffffffffffffffff16600560029054906101000a900473ffffffffffffffffffffffffffffffffffffffff1673ffffffffffffffffffffffffffffffffffffffff167f8be0079c531659141344cd1fd0a4f28419497f9722a3daafe3b4186f6b6457e060405160405180910390a380600560026101000a81548173ffffffffffffffffffffffffffffffffffffffff021916908373ffffffffffffffffffffffffffffffffffffffff16021790555050565b600033905090565b600073ffffffffffffffffffffffffffffffffffffffff168373ffffffffffffffffffffffffffffffffffffffff161415611303576040517f08c379a00000000000000000000000000000000000000000000000000000000081526004018080602001828103825260248152602001806120026024913960400191505060405180910390fd5b600073ffffffffffffffffffffffffffffffffffffffff168273ffffffffffffffffffffffffffffffffffffffff161415611389576040517f08c379a0000000000000000000000000000000000000000000000000000000008152600401808060200182810382526022815260200180611f286022913960400191505060405180910390fd5b80600160008573ffffffffffffffffffffffffffffffffffffffff1673ffffffffffffffffffffffffffffffffffffffff16815260200190815260200160002060008473ffffffffffffffffffffffffffffffffffffffff1673ffffffffffffffffffffffffffffffffffffffff168152602001908152602001600020819055508173ffffffffffffffffffffffffffffffffffffffff168373ffffffffffffffffffffffffffffffffffffffff167f8c5be1e5ebec7d5bd14f71427d1e84f3dd0314c0f7b2291e5b200ac8c7c3b925836040518082815260200191505060405180910390a3505050565b600073ffffffffffffffffffffffffffffffffffffffff168373ffffffffffffffffffffffffffffffffffffffff1614156114fa576040517f08c379a0000000000000000000000000000000000000000000000000000000008152600401808060200182810382526025815260200180611fdd6025913960400191505060405180910390fd5b600073ffffffffffffffffffffffffffffffffffffffff168273ffffffffffffffffffffffffffffffffffffffff161415611580576040517f08c379a0000000000000000000000000000000000000000000000000000000008152600401808060200182810382526023815260200180611ebd6023913960400191505060405180910390fd5b61158b838383611def565b6115f681604051806060016040528060268152602001611f4a602691396000808773ffffffffffffffffffffffffffffffffffffffff1673ffffffffffffffffffffffffffffffffffffffff168152602001908152602001600020546117359092919063ffffffff16565b6000808573ffffffffffffffffffffffffffffffffffffffff1673ffffffffffffffffffffffffffffffffffffffff16815260200190815260200160002081905550611689816000808573ffffffffffffffffffffffffffffffffffffffff1673ffffffffffffffffffffffffffffffffffffffff168152602001908152602001600020546117f590919063ffffffff16565b6000808473ffffffffffffffffffffffffffffffffffffffff1673ffffffffffffffffffffffffffffffffffffffff168152602001908152602001600020819055508173ffffffffffffffffffffffffffffffffffffffff168373ffffffffffffffffffffffffffffffffffffffff167fddf252ad1be2c89b69c2b068fc378daa952ba7f163c4a11628f55a4df523b3ef836040518082815260200191505060405180910390a3505050565b60008383111582906117e2576040517f08c379a00000000000000000000000000000000000000000000000000000000081526004018080602001828103825283818151815260200191508051906020019080838360005b838110156117a757808201518184015260208101905061178c565b50505050905090810190601f1680156117d45780820380516001836020036101000a031916815260200191505b509250505060405180910390fd5b5060008385039050809150509392505050565b600080828401905083811015611873576040517f08c379a000000000000000000000000000000000000000000000000000000000815260040180806020018281038252601b8152602001807f536166654d6174683a206164646974696f6e206f766572666c6f77000000000081525060200191505060405180910390fd5b8091505092915050565b600560019054906101000a900460ff166118ff576040517f08c379a00000000000000000000000000000000000000000000000000000000081526004018080602001828103825260148152602001807f5061757361626c653a206e6f742070617573656400000000000000000000000081525060200191505060405180910390fd5b6000600560016101000a81548160ff0219169083151502179055507f5db9ee0a495bf2e6ff9c91a7834c1ba4fdd244a5e8aa4e537bd38aeae4b073aa611943611275565b604051808273ffffffffffffffffffffffffffffffffffffffff16815260200191505060405180910390a1565b600073ffffffffffffffffffffffffffffffffffffffff168273ffffffffffffffffffffffffffffffffffffffff161415611a13576040517f08c379a000000000000000000000000000000000000000000000000000000000815260040180806020018281038252601f8152602001807f45524332303a206d696e7420746f20746865207a65726f20616464726573730081525060200191505060405180910390fd5b611a1f60008383611def565b611a34816002546117f590919063ffffffff16565b600281905550611a8b816000808573ffffffffffffffffffffffffffffffffffffffff1673ffffffffffffffffffffffffffffffffffffffff168152602001908152602001600020546117f590919063ffffffff16565b6000808473ffffffffffffffffffffffffffffffffffffffff1673ffffffffffffffffffffffffffffffffffffffff168152602001908152602001600020819055508173ffffffffffffffffffffffffffffffffffffffff16600073ffffffffffffffffffffffffffffffffffffffff167fddf252ad1be2c89b69c2b068fc378daa952ba7f163c4a11628f55a4df523b3ef836040518082815260200191505060405180910390a35050565b600073ffffffffffffffffffffffffffffffffffffffff168273ffffffffffffffffffffffffffffffffffffffff161415611bbd576040517f08c379a0000000000000000000000000000000000000000000000000000000008152600401808060200182810382526021815260200180611fbc6021913960400191505060405180910390fd5b611bc982600083611def565b611c3481604051806060016040528060228152602001611ee0602291396000808673ffffffffffffffffffffffffffffffffffffffff1673ffffffffffffffffffffffffffffffffffffffff168152602001908152602001600020546117359092919063ffffffff16565b6000808473ffffffffffffffffffffffffffffffffffffffff1673ffffffffffffffffffffffffffffffffffffffff16815260200190815260200160002081905550611c8b81600254611dff90919063ffffffff16565b600281905550600073ffffffffffffffffffffffffffffffffffffffff168273ffffffffffffffffffffffffffffffffffffffff167fddf252ad1be2c89b69c2b068fc378daa952ba7f163c4a11628f55a4df523b3ef836040518082815260200191505060405180910390a35050565b600560019054906101000a900460ff1615611d7e576040517f08c379a00000000000000000000000000000000000000000000000000000000081526004018080602001828103825260108152602001807f5061757361626c653a207061757365640000000000000000000000000000000081525060200191505060405180910390fd5b6001600560016101000a81548160ff0219169083151502179055507f62e78cea01bee320cd4e420270b5ea74000d11b0c9f74754ebdbfc544b05a258611dc2611275565b604051808273ffffffffffffffffffffffffffffffffffffffff16815260200191505060405180910390a1565b611dfa838383611e49565b505050565b6000611e4183836040518060400160405280601e81526020017f536166654d6174683a207375627472616374696f6e206f766572666c6f770000815250611735565b905092915050565b611e54838383611eb7565b611e5c610b07565b15611eb2576040517f08c379a000000000000000000000000000000000000000000000000000000000815260040180806020018281038252602a81526020018061204b602a913960400191505060405180910390fd5b505050565b50505056fe45524332303a207472616e7366657220746f20746865207a65726f206164647265737345524332303a206275726e20616d6f756e7420657863656564732062616c616e63654f776e61626c653a206e6577206f776e657220697320746865207a65726f206164647265737345524332303a20617070726f766520746f20746865207a65726f206164647265737345524332303a207472616e7366657220616d6f756e7420657863656564732062616c616e636545524332303a207472616e7366657220616d6f756e74206578636565647320616c6c6f77616e636545524332303a206275726e20616d6f756e74206578636565647320616c6c6f77616e636545524332303a206275726e2066726f6d20746865207a65726f206164647265737345524332303a207472616e736665722066726f6d20746865207a65726f206164647265737345524332303a20617070726f76652066726f6d20746865207a65726f206164647265737345524332303a2064656372656173656420616c6c6f77616e63652062656c6f77207a65726f45524332305061757361626c653a20746f6b656e207472616e73666572207768696c6520706175736564a264697066735822122063a644f807c6c7fcb33a4a2b7e1fffce56eee2f8804a1d95c660da1b7fc776d964736f6c634300060c0033",
  "linkReferences": {},
  "deployedLinkReferences": {}
}