{
  "_format": "hh-sol-artifact-1",
  "contractName": "Bridge",
  "sourceName": "contracts/Bridge.sol",
  "abi": [
    {
      "inputs": [
        {
          "internalType": "address[]",
          "name": "_signers",
          "type": "address[]"
        },
        {
          "internalType": "contract IWETH",
          "name": "_WETH",
          "type": "address"
        }
      ],
      "stateMutability": "nonpayable",
      "type": "constructor"
    },
    {
      "anonymous": false,
      "inputs": [
        {
          "indexed": true,
          "internalType": "address",
          "name": "previousOwner",
          "type": "address"
        },
        {
          "indexed": true,
          "internalType": "address",
          "name": "newOwner",
          "type": "address"
        }
      ],
      "name": "OwnershipTransferred",
      "type": "event"
    },
    {
      "inputs": [],
      "name": "WETH",
      "outputs": [
        {
          "internalType": "contract IWETH",
          "name": "",
          "type": "address"
        }
      ],
      "stateMutability": "view",
      "type": "function"
    },
    {
      "inputs": [],
      "name": "_WELC",
      "outputs": [
        {
          "internalType": "contract WELC",
          "name": "",
          "type": "address"
        }
      ],
      "stateMutability": "view",
      "type": "function"
    },
    {
      "inputs": [],
      "name": "owner",
      "outputs": [
        {
          "internalType": "address",
          "name": "",
          "type": "address"
        }
      ],
      "stateMutability": "view",
      "type": "function"
    },
    {
      "inputs": [
        {
          "internalType": "contract ERC20",
          "name": "token",
          "type": "address"
        },
        {
          "internalType": "uint256",
          "name": "amount",
          "type": "uint256"
        },
        {
          "internalType": "uint32",
          "name": "foreignTransactionId",
          "type": "uint32"
        },
        {
          "internalType": "bytes",
          "name": "signature",
          "type": "bytes"
        },
        {
          "internalType": "uint256",
          "name": "signerId",
          "type": "uint256"
        }
      ],
      "name": "redeem",
      "outputs": [],
      "stateMutability": "nonpayable",
      "type": "function"
    },
    {
      "inputs": [
        {
          "internalType": "uint256",
          "name": "",
          "type": "uint256"
        }
      ],
      "name": "redeemedTransactions",
      "outputs": [
        {
          "internalType": "bool",
          "name": "",
          "type": "bool"
        }
      ],
      "stateMutability": "view",
      "type": "function"
    },
    {
      "inputs": [],
      "name": "renounceOwnership",
      "outputs": [],
      "stateMutability": "nonpayable",
      "type": "function"
    },
    {
      "inputs": [
        {
          "internalType": "address[]",
          "name": "_signers",
          "type": "address[]"
        }
      ],
      "name": "setSigners",
      "outputs": [],
      "stateMutability": "nonpayable",
      "type": "function"
    },
    {
      "inputs": [
        {
          "internalType": "uint256",
          "name": "",
          "type": "uint256"
        }
      ],
      "name": "signers",
      "outputs": [
        {
          "internalType": "address",
          "name": "",
          "type": "address"
        }
      ],
      "stateMutability": "view",
      "type": "function"
    },
    {
      "inputs": [
        {
          "internalType": "address",
          "name": "newOwner",
          "type": "address"
        }
      ],
      "name": "transferOwnership",
      "outputs": [],
      "stateMutability": "nonpayable",
      "type": "function"
    },
    {
      "inputs": [
        {
          "internalType": "uint256[]",
          "name": "foreignTransactionIds",
          "type": "uint256[]"
        }
      ],
      "name": "undoTransactions",
      "outputs": [],
      "stateMutability": "nonpayable",
      "type": "function"
    },
    {
      "stateMutability": "payable",
      "type": "receive"
    }
  ],
  "bytecode": "0x60c06040523480156200001157600080fd5b50604051620044ff380380620044ff833981810160405281019062000037919062000349565b600062000049620001ac60201b60201c565b9050806000806101000a81548173ffffffffffffffffffffffffffffffffffffffff021916908373ffffffffffffffffffffffffffffffffffffffff1602179055508073ffffffffffffffffffffffffffffffffffffffff16600073ffffffffffffffffffffffffffffffffffffffff167f8be0079c531659141344cd1fd0a4f28419497f9722a3daafe3b4186f6b6457e060405160405180910390a3508160019080519060200190620000ff929190620001b4565b508073ffffffffffffffffffffffffffffffffffffffff1660808173ffffffffffffffffffffffffffffffffffffffff1660601b81525050604051620001459062000243565b620001509062000427565b604051809103906000f0801580156200016d573d6000803e3d6000fd5b5073ffffffffffffffffffffffffffffffffffffffff1660a08173ffffffffffffffffffffffffffffffffffffffff1660601b81525050505062000542565b600033905090565b82805482825590600052602060002090810192821562000230579160200282015b828111156200022f5782518260006101000a81548173ffffffffffffffffffffffffffffffffffffffff021916908373ffffffffffffffffffffffffffffffffffffffff16021790555091602001919060010190620001d5565b5b5090506200023f919062000251565b5090565b61244380620020bc83390190565b5b808211156200028a57600081816101000a81549073ffffffffffffffffffffffffffffffffffffffff02191690555060010162000252565b5090565b6000815190506200029f816200050e565b92915050565b600082601f830112620002b757600080fd5b8151620002ce620002c8826200048c565b6200045e565b91508181835260208401935060208101905083856020840282011115620002f457600080fd5b60005b838110156200032857816200030d88826200028e565b845260208401935060208301925050600181019050620002f7565b5050505092915050565b600081519050620003438162000528565b92915050565b600080604083850312156200035d57600080fd5b600083015167ffffffffffffffff8111156200037857600080fd5b6200038685828601620002a5565b9250506020620003998582860162000332565b9150509250929050565b6000620003b2600483620004b5565b91507f57454c43000000000000000000000000000000000000000000000000000000006000830152602082019050919050565b6000620003f4601383620004b5565b91507f5772617070656420456c6c69707469636f696e000000000000000000000000006000830152602082019050919050565b600060408201905081810360008301526200044281620003e5565b905081810360208301526200045781620003a3565b9050919050565b6000604051905081810181811067ffffffffffffffff821117156200048257600080fd5b8060405250919050565b600067ffffffffffffffff821115620004a457600080fd5b602082029050602081019050919050565b600082825260208201905092915050565b6000620004d382620004ee565b9050919050565b6000620004e782620004c6565b9050919050565b600073ffffffffffffffffffffffffffffffffffffffff82169050919050565b6200051981620004c6565b81146200052557600080fd5b50565b6200053381620004da565b81146200053f57600080fd5b50565b60805160601c60a05160601c611b4b62000571600039806103e8528061085b5250806105045250611b4b6000f3fe6080604052600436106100955760003560e01c8063a377266211610059578063a377266214610188578063ad5c4648146101b1578063ce9de112146101dc578063d577e50b14610205578063f2fde38b1461022e5761009c565b80632079fb9a146100a1578063715018a6146100de5780638bc1027b146100f55780638da5cb5b146101205780638f3544f81461014b5761009c565b3661009c57005b600080fd5b3480156100ad57600080fd5b506100c860048036038101906100c391906111b0565b610257565b6040516100d5919061161d565b60405180910390f35b3480156100ea57600080fd5b506100f3610293565b005b34801561010157600080fd5b5061010a6103e6565b60405161011791906116dc565b60405180910390f35b34801561012c57600080fd5b5061013561040a565b604051610142919061161d565b60405180910390f35b34801561015757600080fd5b50610172600480360381019061016d91906111b0565b610433565b60405161017f9190611661565b60405180910390f35b34801561019457600080fd5b506101af60048036038101906101aa9190611072565b610453565b005b3480156101bd57600080fd5b506101c6610502565b6040516101d391906116c1565b60405180910390f35b3480156101e857600080fd5b5061020360048036038101906101fe91906110b3565b610526565b005b34801561021157600080fd5b5061022c60048036038101906102279190611121565b610619565b005b34801561023a57600080fd5b5061025560048036038101906102509190611049565b610983565b005b6001818154811061026457fe5b906000526020600020016000915054906101000a900473ffffffffffffffffffffffffffffffffffffffff1681565b61029b610b45565b73ffffffffffffffffffffffffffffffffffffffff1660008054906101000a900473ffffffffffffffffffffffffffffffffffffffff1673ffffffffffffffffffffffffffffffffffffffff1614610328576040517f08c379a000000000000000000000000000000000000000000000000000000000815260040161031f906117d7565b60405180910390fd5b600073ffffffffffffffffffffffffffffffffffffffff1660008054906101000a900473ffffffffffffffffffffffffffffffffffffffff1673ffffffffffffffffffffffffffffffffffffffff167f8be0079c531659141344cd1fd0a4f28419497f9722a3daafe3b4186f6b6457e060405160405180910390a360008060006101000a81548173ffffffffffffffffffffffffffffffffffffffff021916908373ffffffffffffffffffffffffffffffffffffffff160217905550565b7f000000000000000000000000000000000000000000000000000000000000000081565b60008060009054906101000a900473ffffffffffffffffffffffffffffffffffffffff16905090565b60026020528060005260406000206000915054906101000a900460ff1681565b61045b610b45565b73ffffffffffffffffffffffffffffffffffffffff1660008054906101000a900473ffffffffffffffffffffffffffffffffffffffff1673ffffffffffffffffffffffffffffffffffffffff16146104e8576040517f08c379a00000000000000000000000000000000000000000000000000000000081526004016104df906117d7565b60405180910390fd5b80600190805190602001906104fe929190610dfa565b5050565b7f000000000000000000000000000000000000000000000000000000000000000081565b61052e610b45565b73ffffffffffffffffffffffffffffffffffffffff1660008054906101000a900473ffffffffffffffffffffffffffffffffffffffff1673ffffffffffffffffffffffffffffffffffffffff16146105bb576040517f08c379a00000000000000000000000000000000000000000000000000000000081526004016105b2906117d7565b60405180910390fd5b60005b82829050811015610614576000600260008585858181106105db57fe5b90506020020135815260200190815260200160002060006101000a81548160ff02191690831515021790555080806001019150506105be565b505050565b600260008463ffffffff16815260200190815260200160002060009054906101000a900460ff1615610680576040517f08c379a0000000000000000000000000000000000000000000000000000000008152600401610677906117f7565b60405180910390fd5b6001600260008563ffffffff16815260200190815260200160002060006101000a81548160ff021916908315150217905550600085338686306040516020016106cd9594939291906115a7565b6040516020818303038152906040528051906020012090506106f0818484610b4d565b600073ffffffffffffffffffffffffffffffffffffffff168673ffffffffffffffffffffffffffffffffffffffff1614156108245760003373ffffffffffffffffffffffffffffffffffffffff1686600067ffffffffffffffff8111801561075757600080fd5b506040519080825280601f01601f19166020018201604052801561078a5781602001600182028036833780820191505090505b506040516107989190611606565b60006040518083038185875af1925050503d80600081146107d5576040519150601f19603f3d011682016040523d82523d6000602084013e6107da565b606091505b505090508061081e576040517f08c379a000000000000000000000000000000000000000000000000000000000815260040161081590611777565b60405180910390fd5b5061097b565b600173ffffffffffffffffffffffffffffffffffffffff168673ffffffffffffffffffffffffffffffffffffffff1614156108eb577f000000000000000000000000000000000000000000000000000000000000000073ffffffffffffffffffffffffffffffffffffffff166340c10f1933876040518363ffffffff1660e01b81526004016108b4929190611638565b600060405180830381600087803b1580156108ce57600080fd5b505af11580156108e2573d6000803e3d6000fd5b5050505061097a565b8573ffffffffffffffffffffffffffffffffffffffff1663a9059cbb33876040518363ffffffff1660e01b8152600401610926929190611638565b602060405180830381600087803b15801561094057600080fd5b505af1158015610954573d6000803e3d6000fd5b505050506040513d601f19601f8201168201806040525081019061097891906110f8565b505b5b505050505050565b61098b610b45565b73ffffffffffffffffffffffffffffffffffffffff1660008054906101000a900473ffffffffffffffffffffffffffffffffffffffff1673ffffffffffffffffffffffffffffffffffffffff1614610a18576040517f08c379a0000000000000000000000000000000000000000000000000000000008152600401610a0f906117d7565b60405180910390fd5b600073ffffffffffffffffffffffffffffffffffffffff168173ffffffffffffffffffffffffffffffffffffffff161415610a88576040517f08c379a0000000000000000000000000000000000000000000000000000000008152600401610a7f90611757565b60405180910390fd5b8073ffffffffffffffffffffffffffffffffffffffff1660008054906101000a900473ffffffffffffffffffffffffffffffffffffffff1673ffffffffffffffffffffffffffffffffffffffff167f8be0079c531659141344cd1fd0a4f28419497f9722a3daafe3b4186f6b6457e060405160405180910390a3806000806101000a81548173ffffffffffffffffffffffffffffffffffffffff021916908373ffffffffffffffffffffffffffffffffffffffff16021790555050565b600033905090565b60018181548110610b5a57fe5b9060005260206000200160009054906101000a900473ffffffffffffffffffffffffffffffffffffffff1673ffffffffffffffffffffffffffffffffffffffff16610bae8385610c0990919063ffffffff16565b73ffffffffffffffffffffffffffffffffffffffff1614610c04576040517f08c379a0000000000000000000000000000000000000000000000000000000008152600401610bfb90611717565b60405180910390fd5b505050565b60006041825114610c4f576040517f08c379a0000000000000000000000000000000000000000000000000000000008152600401610c4690611737565b60405180910390fd5b60008060006020850151925060408501519150606085015160001a90507f7fffffffffffffffffffffffffffffff5d576e7357a4501ddfe92f46681b20a08260001c1115610cd2576040517f08c379a0000000000000000000000000000000000000000000000000000000008152600401610cc990611797565b60405180910390fd5b601b8160ff1614158015610cea5750601c8160ff1614155b15610d2a576040517f08c379a0000000000000000000000000000000000000000000000000000000008152600401610d21906117b7565b60405180910390fd5b600060018783868660405160008152602001604052604051610d4f949392919061167c565b6020604051602081039080840390855afa158015610d71573d6000803e3d6000fd5b505050602060405103519050600073ffffffffffffffffffffffffffffffffffffffff168173ffffffffffffffffffffffffffffffffffffffff161415610ded576040517f08c379a0000000000000000000000000000000000000000000000000000000008152600401610de4906116f7565b60405180910390fd5b8094505050505092915050565b828054828255906000526020600020908101928215610e73579160200282015b82811115610e725782518260006101000a81548173ffffffffffffffffffffffffffffffffffffffff021916908373ffffffffffffffffffffffffffffffffffffffff16021790555091602001919060010190610e1a565b5b509050610e809190610e84565b5090565b5b80821115610ebb57600081816101000a81549073ffffffffffffffffffffffffffffffffffffffff021916905550600101610e85565b5090565b600081359050610ece81611aa2565b92915050565b600082601f830112610ee557600080fd5b8135610ef8610ef382611844565b611817565b91508181835260208401935060208101905083856020840282011115610f1d57600080fd5b60005b83811015610f4d5781610f338882610ebf565b845260208401935060208301925050600181019050610f20565b5050505092915050565b60008083601f840112610f6957600080fd5b8235905067ffffffffffffffff811115610f8257600080fd5b602083019150836020820283011115610f9a57600080fd5b9250929050565b600081519050610fb081611ab9565b92915050565b600082601f830112610fc757600080fd5b8135610fda610fd58261186c565b611817565b91508082526020830160208301858383011115610ff657600080fd5b6110018382846119f4565b50505092915050565b60008135905061101981611ad0565b92915050565b60008135905061102e81611ae7565b92915050565b60008135905061104381611afe565b92915050565b60006020828403121561105b57600080fd5b600061106984828501610ebf565b91505092915050565b60006020828403121561108457600080fd5b600082013567ffffffffffffffff81111561109e57600080fd5b6110aa84828501610ed4565b91505092915050565b600080602083850312156110c657600080fd5b600083013567ffffffffffffffff8111156110e057600080fd5b6110ec85828601610f57565b92509250509250929050565b60006020828403121561110a57600080fd5b600061111884828501610fa1565b91505092915050565b600080600080600060a0868803121561113957600080fd5b60006111478882890161100a565b95505060206111588882890161101f565b945050604061116988828901611034565b935050606086013567ffffffffffffffff81111561118657600080fd5b61119288828901610fb6565b92505060806111a38882890161101f565b9150509295509295909350565b6000602082840312156111c257600080fd5b60006111d08482850161101f565b91505092915050565b6111e281611952565b82525050565b6111f96111f4826118d1565b611a48565b82525050565b611208816118bf565b82525050565b61121f61121a826118bf565b611a36565b82525050565b61122e816118e3565b82525050565b61123d816118ef565b82525050565b600061124e82611898565b61125881856118a3565b9350611268818560208601611a03565b80840191505092915050565b61128561128082611964565b611a48565b82525050565b61129481611988565b82525050565b6112a3816119ac565b82525050565b60006112b66018836118ae565b91507f45434453413a20696e76616c6964207369676e617475726500000000000000006000830152602082019050919050565b60006112f66011836118ae565b91507f696e76616c6964207369676e61747572650000000000000000000000000000006000830152602082019050919050565b6000611336601f836118ae565b91507f45434453413a20696e76616c6964207369676e6174757265206c656e677468006000830152602082019050919050565b60006113766026836118ae565b91507f4f776e61626c653a206e6577206f776e657220697320746865207a65726f206160008301527f64647265737300000000000000000000000000000000000000000000000000006020830152604082019050919050565b60006113dc6015836118ae565b91507f4574686572207472616e73666572206661696c656400000000000000000000006000830152602082019050919050565b600061141c6022836118ae565b91507f45434453413a20696e76616c6964207369676e6174757265202773272076616c60008301527f75650000000000000000000000000000000000000000000000000000000000006020830152604082019050919050565b60006114826022836118ae565b91507f45434453413a20696e76616c6964207369676e6174757265202776272076616c60008301527f75650000000000000000000000000000000000000000000000000000000000006020830152604082019050919050565b60006114e86020836118ae565b91507f4f776e61626c653a2063616c6c6572206973206e6f7420746865206f776e65726000830152602082019050919050565b6000611528601c836118ae565b91507f696e76616c696420666f726569676e5472616e73616374696f6e4964000000006000830152602082019050919050565b6115648161192b565b82525050565b61157b6115768261192b565b611a6c565b82525050565b61159261158d82611935565b611a76565b82525050565b6115a181611945565b82525050565b60006115b3828861120e565b6014820191506115c382876111e8565b6014820191506115d3828661156a565b6020820191506115e38285611581565b6004820191506115f38284611274565b6014820191508190509695505050505050565b60006116128284611243565b915081905092915050565b600060208201905061163260008301846111ff565b92915050565b600060408201905061164d60008301856111d9565b61165a602083018461155b565b9392505050565b60006020820190506116766000830184611225565b92915050565b60006080820190506116916000830187611234565b61169e6020830186611598565b6116ab6040830185611234565b6116b86060830184611234565b95945050505050565b60006020820190506116d6600083018461128b565b92915050565b60006020820190506116f1600083018461129a565b92915050565b60006020820190508181036000830152611710816112a9565b9050919050565b60006020820190508181036000830152611730816112e9565b9050919050565b6000602082019050818103600083015261175081611329565b9050919050565b6000602082019050818103600083015261177081611369565b9050919050565b60006020820190508181036000830152611790816113cf565b9050919050565b600060208201905081810360008301526117b08161140f565b9050919050565b600060208201905081810360008301526117d081611475565b9050919050565b600060208201905081810360008301526117f0816114db565b9050919050565b600060208201905081810360008301526118108161151b565b9050919050565b6000604051905081810181811067ffffffffffffffff8211171561183a57600080fd5b8060405250919050565b600067ffffffffffffffff82111561185b57600080fd5b602082029050602081019050919050565b600067ffffffffffffffff82111561188357600080fd5b601f19601f8301169050602081019050919050565b600081519050919050565b600081905092915050565b600082825260208201905092915050565b60006118ca8261190b565b9050919050565b60006118dc8261190b565b9050919050565b60008115159050919050565b6000819050919050565b6000611904826118bf565b9050919050565b600073ffffffffffffffffffffffffffffffffffffffff82169050919050565b6000819050919050565b600063ffffffff82169050919050565b600060ff82169050919050565b600061195d826119d0565b9050919050565b600061196f82611976565b9050919050565b60006119818261190b565b9050919050565b60006119938261199a565b9050919050565b60006119a58261190b565b9050919050565b60006119b7826119be565b9050919050565b60006119c98261190b565b9050919050565b60006119db826119e2565b9050919050565b60006119ed8261190b565b9050919050565b82818337600083830152505050565b60005b83811015611a21578082015181840152602081019050611a06565b83811115611a30576000848401525b50505050565b6000611a4182611a5a565b9050919050565b6000611a5382611a5a565b9050919050565b6000611a6582611a95565b9050919050565b6000819050919050565b6000611a8182611a88565b9050919050565b60008160e01b9050919050565b60008160601b9050919050565b611aab816118bf565b8114611ab657600080fd5b50565b611ac2816118e3565b8114611acd57600080fd5b50565b611ad9816118f9565b8114611ae457600080fd5b50565b611af08161192b565b8114611afb57600080fd5b50565b611b0781611935565b8114611b1257600080fd5b5056fea2646970667358221220817056497d66bd8c7f9bae747e3d230d883424761a2a7eee586bb145ddc47d4664736f6c634300060c003360806040523480156200001157600080fd5b506040516200244338038062002443833981810160405260408110156200003757600080fd5b81019080805160405193929190846401000000008211156200005857600080fd5b838201915060208201858111156200006f57600080fd5b82518660018202830111640100000000821117156200008d57600080fd5b8083526020830192505050908051906020019080838360005b83811015620000c3578082015181840152602081019050620000a6565b50505050905090810190601f168015620000f15780820380516001836020036101000a031916815260200191505b50604052602001805160405193929190846401000000008211156200011557600080fd5b838201915060208201858111156200012c57600080fd5b82518660018202830111640100000000821117156200014a57600080fd5b8083526020830192505050908051906020019080838360005b838110156200018057808201518184015260208101905062000163565b50505050905090810190601f168015620001ae5780820380516001836020036101000a031916815260200191505b5060405250505081818160039080519060200190620001cf929190620002e3565b508060049080519060200190620001e8929190620002e3565b506012600560006101000a81548160ff021916908360ff16021790555050506000600560016101000a81548160ff021916908315150217905550600062000234620002db60201b60201c565b905080600560026101000a81548173ffffffffffffffffffffffffffffffffffffffff021916908373ffffffffffffffffffffffffffffffffffffffff1602179055508073ffffffffffffffffffffffffffffffffffffffff16600073ffffffffffffffffffffffffffffffffffffffff167f8be0079c531659141344cd1fd0a4f28419497f9722a3daafe3b4186f6b6457e060405160405180910390a350505062000389565b600033905090565b828054600181600116156101000203166002900490600052602060002090601f016020900481019282601f106200032657805160ff191683800117855562000357565b8280016001018555821562000357579182015b828111156200035657825182559160200191906001019062000339565b5b5090506200036691906200036a565b5090565b5b80821115620003855760008160009055506001016200036b565b5090565b6120aa80620003996000396000f3fe608060405234801561001057600080fd5b506004361061012c5760003560e01c806370a08231116100ad57806395d89b411161007157806395d89b41146104d3578063a457c2d714610556578063a9059cbb146105ba578063dd62ed3e1461061e578063f2fde38b146106965761012c565b806370a08231146103e5578063715018a61461043d57806379cc6790146104475780638456cb59146104955780638da5cb5b1461049f5761012c565b806339509351116100f457806339509351146102db5780633f4ba83a1461033f57806340c10f191461034957806342966c68146103975780635c975abb146103c55761012c565b806306fdde0314610131578063095ea7b3146101b457806318160ddd1461021857806323b872dd14610236578063313ce567146102ba575b600080fd5b6101396106da565b6040518080602001828103825283818151815260200191508051906020019080838360005b8381101561017957808201518184015260208101905061015e565b50505050905090810190601f1680156101a65780820380516001836020036101000a031916815260200191505b509250505060405180910390f35b610200600480360360408110156101ca57600080fd5b81019080803573ffffffffffffffffffffffffffffffffffffffff1690602001909291908035906020019092919050505061077c565b60405180821515815260200191505060405180910390f35b61022061079a565b6040518082815260200191505060405180910390f35b6102a26004803603606081101561024c57600080fd5b81019080803573ffffffffffffffffffffffffffffffffffffffff169060200190929190803573ffffffffffffffffffffffffffffffffffffffff169060200190929190803590602001909291905050506107a4565b60405180821515815260200191505060405180910390f35b6102c261087d565b604051808260ff16815260200191505060405180910390f35b610327600480360360408110156102f157600080fd5b81019080803573ffffffffffffffffffffffffffffffffffffffff16906020019092919080359060200190929190505050610894565b60405180821515815260200191505060405180910390f35b610347610947565b005b6103956004803603604081101561035f57600080fd5b81019080803573ffffffffffffffffffffffffffffffffffffffff16906020019092919080359060200190929190505050610a1b565b005b6103c3600480360360208110156103ad57600080fd5b8101908080359060200190929190505050610af3565b005b6103cd610b07565b60405180821515815260200191505060405180910390f35b610427600480360360208110156103fb57600080fd5b81019080803573ffffffffffffffffffffffffffffffffffffffff169060200190929190505050610b1e565b6040518082815260200191505060405180910390f35b610445610b66565b005b6104936004803603604081101561045d57600080fd5b81019080803573ffffffffffffffffffffffffffffffffffffffff16906020019092919080359060200190929190505050610cf1565b005b61049d610d53565b005b6104a7610e27565b604051808273ffffffffffffffffffffffffffffffffffffffff16815260200191505060405180910390f35b6104db610e51565b6040518080602001828103825283818151815260200191508051906020019080838360005b8381101561051b578082015181840152602081019050610500565b50505050905090810190601f1680156105485780820380516001836020036101000a031916815260200191505b509250505060405180910390f35b6105a26004803603604081101561056c57600080fd5b81019080803573ffffffffffffffffffffffffffffffffffffffff16906020019092919080359060200190929190505050610ef3565b60405180821515815260200191505060405180910390f35b610606600480360360408110156105d057600080fd5b81019080803573ffffffffffffffffffffffffffffffffffffffff16906020019092919080359060200190929190505050610fc0565b60405180821515815260200191505060405180910390f35b6106806004803603604081101561063457600080fd5b81019080803573ffffffffffffffffffffffffffffffffffffffff169060200190929190803573ffffffffffffffffffffffffffffffffffffffff169060200190929190505050610fde565b6040518082815260200191505060405180910390f35b6106d8600480360360208110156106ac57600080fd5b81019080803573ffffffffffffffffffffffffffffffffffffffff169060200190929190505050611065565b005b606060038054600181600116156101000203166002900480601f0160208091040260200160405190810160405280929190818152602001828054600181600116156101000203166002900480156107725780601f1061074757610100808354040283529160200191610772565b820191906000526020600020905b81548152906001019060200180831161075557829003601f168201915b5050505050905090565b6000610790610789611275565b848461127d565b6001905092915050565b6000600254905090565b60006107b1848484611474565b610872846107bd611275565b61086d85604051806060016040528060288152602001611f7060289139600160008b73ffffffffffffffffffffffffffffffffffffffff1673ffffffffffffffffffffffffffffffffffffffff1681526020019081526020016000206000610823611275565b73ffffffffffffffffffffffffffffffffffffffff1673ffffffffffffffffffffffffffffffffffffffff168152602001908152602001600020546117359092919063ffffffff16565b61127d565b600190509392505050565b6000600560009054906101000a900460ff16905090565b600061093d6108a1611275565b8461093885600160006108b2611275565b73ffffffffffffffffffffffffffffffffffffffff1673ffffffffffffffffffffffffffffffffffffffff16815260200190815260200160002060008973ffffffffffffffffffffffffffffffffffffffff1673ffffffffffffffffffffffffffffffffffffffff168152602001908152602001600020546117f590919063ffffffff16565b61127d565b6001905092915050565b61094f611275565b73ffffffffffffffffffffffffffffffffffffffff16600560029054906101000a900473ffffffffffffffffffffffffffffffffffffffff1673ffffffffffffffffffffffffffffffffffffffff1614610a11576040517f08c379a00000000000000000000000000000000000000000000000000000000081526004018080602001828103825260208152602001807f4f776e61626c653a2063616c6c6572206973206e6f7420746865206f776e657281525060200191505060405180910390fd5b610a1961187d565b565b610a23611275565b73ffffffffffffffffffffffffffffffffffffffff16600560029054906101000a900473ffffffffffffffffffffffffffffffffffffffff1673ffffffffffffffffffffffffffffffffffffffff1614610ae5576040517f08c379a00000000000000000000000000000000000000000000000000000000081526004018080602001828103825260208152602001807f4f776e61626c653a2063616c6c6572206973206e6f7420746865206f776e657281525060200191505060405180910390fd5b610aef8282611970565b5050565b610b04610afe611275565b82611b37565b50565b6000600560019054906101000a900460ff16905090565b60008060008373ffffffffffffffffffffffffffffffffffffffff1673ffffffffffffffffffffffffffffffffffffffff168152602001908152602001600020549050919050565b610b6e611275565b73ffffffffffffffffffffffffffffffffffffffff16600560029054906101000a900473ffffffffffffffffffffffffffffffffffffffff1673ffffffffffffffffffffffffffffffffffffffff1614610c30576040517f08c379a00000000000000000000000000000000000000000000000000000000081526004018080602001828103825260208152602001807f4f776e61626c653a2063616c6c6572206973206e6f7420746865206f776e657281525060200191505060405180910390fd5b600073ffffffffffffffffffffffffffffffffffffffff16600560029054906101000a900473ffffffffffffffffffffffffffffffffffffffff1673ffffffffffffffffffffffffffffffffffffffff167f8be0079c531659141344cd1fd0a4f28419497f9722a3daafe3b4186f6b6457e060405160405180910390a36000600560026101000a81548173ffffffffffffffffffffffffffffffffffffffff021916908373ffffffffffffffffffffffffffffffffffffffff160217905550565b6000610d3082604051806060016040528060248152602001611f9860249139610d2186610d1c611275565b610fde565b6117359092919063ffffffff16565b9050610d4483610d3e611275565b8361127d565b610d4e8383611b37565b505050565b610d5b611275565b73ffffffffffffffffffffffffffffffffffffffff16600560029054906101000a900473ffffffffffffffffffffffffffffffffffffffff1673ffffffffffffffffffffffffffffffffffffffff1614610e1d576040517f08c379a00000000000000000000000000000000000000000000000000000000081526004018080602001828103825260208152602001807f4f776e61626c653a2063616c6c6572206973206e6f7420746865206f776e657281525060200191505060405180910390fd5b610e25611cfb565b565b6000600560029054906101000a900473ffffffffffffffffffffffffffffffffffffffff16905090565b606060048054600181600116156101000203166002900480601f016020809104026020016040519081016040528092919081815260200182805460018160011615610100020316600290048015610ee95780601f10610ebe57610100808354040283529160200191610ee9565b820191906000526020600020905b815481529060010190602001808311610ecc57829003601f168201915b5050505050905090565b6000610fb6610f00611275565b84610fb1856040518060600160405280602581526020016120266025913960016000610f2a611275565b73ffffffffffffffffffffffffffffffffffffffff1673ffffffffffffffffffffffffffffffffffffffff16815260200190815260200160002060008a73ffffffffffffffffffffffffffffffffffffffff1673ffffffffffffffffffffffffffffffffffffffff168152602001908152602001600020546117359092919063ffffffff16565b61127d565b6001905092915050565b6000610fd4610fcd611275565b8484611474565b6001905092915050565b6000600160008473ffffffffffffffffffffffffffffffffffffffff1673ffffffffffffffffffffffffffffffffffffffff16815260200190815260200160002060008373ffffffffffffffffffffffffffffffffffffffff1673ffffffffffffffffffffffffffffffffffffffff16815260200190815260200160002054905092915050565b61106d611275565b73ffffffffffffffffffffffffffffffffffffffff16600560029054906101000a900473ffffffffffffffffffffffffffffffffffffffff1673ffffffffffffffffffffffffffffffffffffffff161461112f576040517f08c379a00000000000000000000000000000000000000000000000000000000081526004018080602001828103825260208152602001807f4f776e61626c653a2063616c6c6572206973206e6f7420746865206f776e657281525060200191505060405180910390fd5b600073ffffffffffffffffffffffffffffffffffffffff168173ffffffffffffffffffffffffffffffffffffffff1614156111b5576040517f08c379a0000000000000000000000000000000000000000000000000000000008152600401808060200182810382526026815260200180611f026026913960400191505060405180910390fd5b8073ffffffffffffffffffffffffffffffffffffffff16600560029054906101000a900473ffffffffffffffffffffffffffffffffffffffff1673ffffffffffffffffffffffffffffffffffffffff167f8be0079c531659141344cd1fd0a4f28419497f9722a3daafe3b4186f6b6457e060405160405180910390a380600560026101000a81548173ffffffffffffffffffffffffffffffffffffffff021916908373ffffffffffffffffffffffffffffffffffffffff16021790555050565b600033905090565b600073ffffffffffffffffffffffffffffffffffffffff168373ffffffffffffffffffffffffffffffffffffffff161415611303576040517f08c379a00000000000000000000000000000000000000000000000000000000081526004018080602001828103825260248152602001806120026024913960400191505060405180910390fd5b600073ffffffffffffffffffffffffffffffffffffffff168273ffffffffffffffffffffffffffffffffffffffff161415611389576040517f08c379a0000000000000000000000000000000000000000000000000000000008152600401808060200182810382526022815260200180611f286022913960400191505060405180910390fd5b80600160008573ffffffffffffffffffffffffffffffffffffffff1673ffffffffffffffffffffffffffffffffffffffff16815260200190815260200160002060008473ffffffffffffffffffffffffffffffffffffffff1673ffffffffffffffffffffffffffffffffffffffff168152602001908152602001600020819055508173ffffffffffffffffffffffffffffffffffffffff168373ffffffffffffffffffffffffffffffffffffffff167f8c5be1e5ebec7d5bd14f71427d1e84f3dd0314c0f7b2291e5b200ac8c7c3b925836040518082815260200191505060405180910390a3505050565b600073ffffffffffffffffffffffffffffffffffffffff168373ffffffffffffffffffffffffffffffffffffffff1614156114fa576040517f08c379a0000000000000000000000000000000000000000000000000000000008152600401808060200182810382526025815260200180611fdd6025913960400191505060405180910390fd5b600073ffffffffffffffffffffffffffffffffffffffff168273ffffffffffffffffffffffffffffffffffffffff161415611580576040517f08c379a0000000000000000000000000000000000000000000000000000000008152600401808060200182810382526023815260200180611ebd6023913960400191505060405180910390fd5b61158b838383611def565b6115f681604051806060016040528060268152602001611f4a602691396000808773ffffffffffffffffffffffffffffffffffffffff1673ffffffffffffffffffffffffffffffffffffffff168152602001908152602001600020546117359092919063ffffffff16565b6000808573ffffffffffffffffffffffffffffffffffffffff1673ffffffffffffffffffffffffffffffffffffffff16815260200190815260200160002081905550611689816000808573ffffffffffffffffffffffffffffffffffffffff1673ffffffffffffffffffffffffffffffffffffffff168152602001908152602001600020546117f590919063ffffffff16565b6000808473ffffffffffffffffffffffffffffffffffffffff1673ffffffffffffffffffffffffffffffffffffffff168152602001908152602001600020819055508173ffffffffffffffffffffffffffffffffffffffff168373ffffffffffffffffffffffffffffffffffffffff167fddf252ad1be2c89b69c2b068fc378daa952ba7f163c4a11628f55a4df523b3ef836040518082815260200191505060405180910390a3505050565b60008383111582906117e2576040517f08c379a00000000000000000000000000000000000000000000000000000000081526004018080602001828103825283818151815260200191508051906020019080838360005b838110156117a757808201518184015260208101905061178c565b50505050905090810190601f1680156117d45780820380516001836020036101000a031916815260200191505b509250505060405180910390fd5b5060008385039050809150509392505050565b600080828401905083811015611873576040517f08c379a000000000000000000000000000000000000000000000000000000000815260040180806020018281038252601b8152602001807f536166654d6174683a206164646974696f6e206f766572666c6f77000000000081525060200191505060405180910390fd5b8091505092915050565b600560019054906101000a900460ff166118ff576040517f08c379a00000000000000000000000000000000000000000000000000000000081526004018080602001828103825260148152602001807f5061757361626c653a206e6f742070617573656400000000000000000000000081525060200191505060405180910390fd5b6000600560016101000a81548160ff0219169083151502179055507f5db9ee0a495bf2e6ff9c91a7834c1ba4fdd244a5e8aa4e537bd38aeae4b073aa611943611275565b604051808273ffffffffffffffffffffffffffffffffffffffff16815260200191505060405180910390a1565b600073ffffffffffffffffffffffffffffffffffffffff168273ffffffffffffffffffffffffffffffffffffffff161415611a13576040517f08c379a000000000000000000000000000000000000000000000000000000000815260040180806020018281038252601f8152602001807f45524332303a206d696e7420746f20746865207a65726f20616464726573730081525060200191505060405180910390fd5b611a1f60008383611def565b611a34816002546117f590919063ffffffff16565b600281905550611a8b816000808573ffffffffffffffffffffffffffffffffffffffff1673ffffffffffffffffffffffffffffffffffffffff168152602001908152602001600020546117f590919063ffffffff16565b6000808473ffffffffffffffffffffffffffffffffffffffff1673ffffffffffffffffffffffffffffffffffffffff168152602001908152602001600020819055508173ffffffffffffffffffffffffffffffffffffffff16600073ffffffffffffffffffffffffffffffffffffffff167fddf252ad1be2c89b69c2b068fc378daa952ba7f163c4a11628f55a4df523b3ef836040518082815260200191505060405180910390a35050565b600073ffffffffffffffffffffffffffffffffffffffff168273ffffffffffffffffffffffffffffffffffffffff161415611bbd576040517f08c379a0000000000000000000000000000000000000000000000000000000008152600401808060200182810382526021815260200180611fbc6021913960400191505060405180910390fd5b611bc982600083611def565b611c3481604051806060016040528060228152602001611ee0602291396000808673ffffffffffffffffffffffffffffffffffffffff1673ffffffffffffffffffffffffffffffffffffffff168152602001908152602001600020546117359092919063ffffffff16565b6000808473ffffffffffffffffffffffffffffffffffffffff1673ffffffffffffffffffffffffffffffffffffffff16815260200190815260200160002081905550611c8b81600254611dff90919063ffffffff16565b600281905550600073ffffffffffffffffffffffffffffffffffffffff168273ffffffffffffffffffffffffffffffffffffffff167fddf252ad1be2c89b69c2b068fc378daa952ba7f163c4a11628f55a4df523b3ef836040518082815260200191505060405180910390a35050565b600560019054906101000a900460ff1615611d7e576040517f08c379a00000000000000000000000000000000000000000000000000000000081526004018080602001828103825260108152602001807f5061757361626c653a207061757365640000000000000000000000000000000081525060200191505060405180910390fd5b6001600560016101000a81548160ff0219169083151502179055507f62e78cea01bee320cd4e420270b5ea74000d11b0c9f74754ebdbfc544b05a258611dc2611275565b604051808273ffffffffffffffffffffffffffffffffffffffff16815260200191505060405180910390a1565b611dfa838383611e49565b505050565b6000611e4183836040518060400160405280601e81526020017f536166654d6174683a207375627472616374696f6e206f766572666c6f770000815250611735565b905092915050565b611e54838383611eb7565b611e5c610b07565b15611eb2576040517f08c379a000000000000000000000000000000000000000000000000000000000815260040180806020018281038252602a81526020018061204b602a913960400191505060405180910390fd5b505050565b50505056fe45524332303a207472616e7366657220746f20746865207a65726f206164647265737345524332303a206275726e20616d6f756e7420657863656564732062616c616e63654f776e61626c653a206e6577206f776e657220697320746865207a65726f206164647265737345524332303a20617070726f766520746f20746865207a65726f206164647265737345524332303a207472616e7366657220616d6f756e7420657863656564732062616c616e636545524332303a207472616e7366657220616d6f756e74206578636565647320616c6c6f77616e636545524332303a206275726e20616d6f756e74206578636565647320616c6c6f77616e636545524332303a206275726e2066726f6d20746865207a65726f206164647265737345524332303a207472616e736665722066726f6d20746865207a65726f206164647265737345524332303a20617070726f76652066726f6d20746865207a65726f206164647265737345524332303a2064656372656173656420616c6c6f77616e63652062656c6f77207a65726f45524332305061757361626c653a20746f6b656e207472616e73666572207768696c6520706175736564a264697066735822122063a644f807c6c7fcb33a4a2b7e1fffce56eee2f8804a1d95c660da1b7fc776d964736f6c634300060c0033",
  "linkReferences": {},
  "deployedLinkReferences": {}
}