{
  "_format": "hh-sol-artifact-1",
  "contractName": "Bridge",
  "sourceName": "contracts/Bridge.sol",
  "abi": [
    {
      "inputs": [
        {
          "internalType": "address[]",
          "name": "_signers",
          "type": "address[]"
        },
        {
          "internalType": "contract IWETH",
          "name": "_WETH",
          "type": "address"
        }
      ],
      "stateMutability": "nonpayable",
      "type": "constructor"
    },
    {
      "anonymous": false,
      "inputs": [
        {
          "indexed": true,
          "internalType": "contract ERC20",
          "name": "token",
          "type": "address"
        },
        {
          "indexed": false,
          "internalType": "bytes32",
          "name": "ellipticoinAddress",
          "type": "bytes32"
        },
        {
          "indexed": false,
          "internalType": "uint256",
          "name": "amount",
          "type": "uint256"
        }
      ],
      "name": "Mint",
      "type": "event"
    },
    {
      "anonymous": false,
      "inputs": [
        {
          "indexed": true,
          "internalType": "address",
          "name": "previousOwner",
          "type": "address"
        },
        {
          "indexed": true,
          "internalType": "address",
          "name": "newOwner",
          "type": "address"
        }
      ],
      "name": "OwnershipTransferred",
      "type": "event"
    },
    {
      "inputs": [],
      "name": "WETH",
      "outputs": [
        {
          "internalType": "contract IWETH",
          "name": "",
          "type": "address"
        }
      ],
      "stateMutability": "view",
      "type": "function"
    },
    {
      "inputs": [],
      "name": "_WELC",
      "outputs": [
        {
          "internalType": "contract WELC",
          "name": "",
          "type": "address"
        }
      ],
      "stateMutability": "view",
      "type": "function"
    },
    {
      "inputs": [],
      "name": "getSigners",
      "outputs": [
        {
          "internalType": "address[]",
          "name": "",
          "type": "address[]"
        }
      ],
      "stateMutability": "view",
      "type": "function"
    },
    {
      "inputs": [],
      "name": "owner",
      "outputs": [
        {
          "internalType": "address",
          "name": "",
          "type": "address"
        }
      ],
      "stateMutability": "view",
      "type": "function"
    },
    {
      "inputs": [
        {
          "internalType": "contract ERC20",
          "name": "token",
          "type": "address"
        },
        {
          "internalType": "address",
          "name": "to",
          "type": "address"
        },
        {
          "internalType": "uint256",
          "name": "amount",
          "type": "uint256"
        },
        {
          "internalType": "uint32",
          "name": "foreignTransactionId",
          "type": "uint32"
        },
        {
          "internalType": "bytes[]",
          "name": "signatures",
          "type": "bytes[]"
        }
      ],
      "name": "redeem",
      "outputs": [],
      "stateMutability": "nonpayable",
      "type": "function"
    },
    {
      "inputs": [
        {
          "internalType": "uint256",
          "name": "",
          "type": "uint256"
        }
      ],
      "name": "redeemedTransactions",
      "outputs": [
        {
          "internalType": "bool",
          "name": "",
          "type": "bool"
        }
      ],
      "stateMutability": "view",
      "type": "function"
    },
    {
      "inputs": [],
      "name": "renounceOwnership",
      "outputs": [],
      "stateMutability": "nonpayable",
      "type": "function"
    },
    {
      "inputs": [
        {
          "internalType": "address[]",
          "name": "_signers",
          "type": "address[]"
        }
      ],
      "name": "setSigners",
      "outputs": [],
      "stateMutability": "nonpayable",
      "type": "function"
    },
    {
      "inputs": [
        {
          "internalType": "uint256",
          "name": "",
          "type": "uint256"
        }
      ],
      "name": "signers",
      "outputs": [
        {
          "internalType": "address",
          "name": "",
          "type": "address"
        }
      ],
      "stateMutability": "view",
      "type": "function"
    },
    {
      "inputs": [
        {
          "internalType": "address",
          "name": "newOwner",
          "type": "address"
        }
      ],
      "name": "transferOwnership",
      "outputs": [],
      "stateMutability": "nonpayable",
      "type": "function"
    },
    {
      "inputs": [
        {
          "internalType": "uint256[]",
          "name": "foreignTransactionIds",
          "type": "uint256[]"
        }
      ],
      "name": "undoTransactions",
      "outputs": [],
      "stateMutability": "nonpayable",
      "type": "function"
    },
    {
      "stateMutability": "payable",
      "type": "receive"
    }
  ],
  "bytecode": "0x60c06040523480156200001157600080fd5b506040516200483f3803806200483f833981810160405281019062000037919062000349565b600062000049620001ac60201b60201c565b9050806000806101000a81548173ffffffffffffffffffffffffffffffffffffffff021916908373ffffffffffffffffffffffffffffffffffffffff1602179055508073ffffffffffffffffffffffffffffffffffffffff16600073ffffffffffffffffffffffffffffffffffffffff167f8be0079c531659141344cd1fd0a4f28419497f9722a3daafe3b4186f6b6457e060405160405180910390a3508160019080519060200190620000ff929190620001b4565b508073ffffffffffffffffffffffffffffffffffffffff1660808173ffffffffffffffffffffffffffffffffffffffff1660601b81525050604051620001459062000243565b620001509062000427565b604051809103906000f0801580156200016d573d6000803e3d6000fd5b5073ffffffffffffffffffffffffffffffffffffffff1660a08173ffffffffffffffffffffffffffffffffffffffff1660601b81525050505062000542565b600033905090565b82805482825590600052602060002090810192821562000230579160200282015b828111156200022f5782518260006101000a81548173ffffffffffffffffffffffffffffffffffffffff021916908373ffffffffffffffffffffffffffffffffffffffff16021790555091602001919060010190620001d5565b5b5090506200023f919062000251565b5090565b61244380620023fc83390190565b5b808211156200028a57600081816101000a81549073ffffffffffffffffffffffffffffffffffffffff02191690555060010162000252565b5090565b6000815190506200029f816200050e565b92915050565b600082601f830112620002b757600080fd5b8151620002ce620002c8826200048c565b6200045e565b91508181835260208401935060208101905083856020840282011115620002f457600080fd5b60005b838110156200032857816200030d88826200028e565b845260208401935060208301925050600181019050620002f7565b5050505092915050565b600081519050620003438162000528565b92915050565b600080604083850312156200035d57600080fd5b600083015167ffffffffffffffff8111156200037857600080fd5b6200038685828601620002a5565b9250506020620003998582860162000332565b9150509250929050565b6000620003b2600483620004b5565b91507f57454c43000000000000000000000000000000000000000000000000000000006000830152602082019050919050565b6000620003f4601383620004b5565b91507f5772617070656420456c6c69707469636f696e000000000000000000000000006000830152602082019050919050565b600060408201905081810360008301526200044281620003e5565b905081810360208301526200045781620003a3565b9050919050565b6000604051905081810181811067ffffffffffffffff821117156200048257600080fd5b8060405250919050565b600067ffffffffffffffff821115620004a457600080fd5b602082029050602081019050919050565b600082825260208201905092915050565b6000620004d382620004ee565b9050919050565b6000620004e782620004c6565b9050919050565b600073ffffffffffffffffffffffffffffffffffffffff82169050919050565b6200051981620004c6565b81146200052557600080fd5b50565b6200053381620004da565b81146200053f57600080fd5b50565b60805160601c60a05160601c611e8b620005716000398061041e528061091e5250806105c85250611e8b6000f3fe6080604052600436106100a05760003560e01c806394cf795e1161006457806394cf795e14610193578063a3772662146101be578063ad5c4648146101e7578063ce9de11214610212578063da6632231461023b578063f2fde38b14610264576100a7565b80632079fb9a146100ac578063715018a6146100e95780638bc1027b146101005780638da5cb5b1461012b5780638f3544f814610156576100a7565b366100a757005b600080fd5b3480156100b857600080fd5b506100d360048036038101906100ce919061135f565b61028d565b6040516100e09190611891565b60405180910390f35b3480156100f557600080fd5b506100fe6102c9565b005b34801561010c57600080fd5b5061011561041c565b604051610122919061199b565b60405180910390f35b34801561013757600080fd5b50610140610440565b60405161014d9190611891565b60405180910390f35b34801561016257600080fd5b5061017d6004803603810190610178919061135f565b610469565b60405161018a9190611920565b60405180910390f35b34801561019f57600080fd5b506101a8610489565b6040516101b591906118fe565b60405180910390f35b3480156101ca57600080fd5b506101e560048036038101906101e09190611221565b610517565b005b3480156101f357600080fd5b506101fc6105c6565b6040516102099190611980565b60405180910390f35b34801561021e57600080fd5b5061023960048036038101906102349190611262565b6105ea565b005b34801561024757600080fd5b50610262600480360381019061025d91906112d0565b6106dd565b005b34801561027057600080fd5b5061028b600480360381019061028691906111f8565b610a46565b005b6001818154811061029a57fe5b906000526020600020016000915054906101000a900473ffffffffffffffffffffffffffffffffffffffff1681565b6102d1610c08565b73ffffffffffffffffffffffffffffffffffffffff1660008054906101000a900473ffffffffffffffffffffffffffffffffffffffff1673ffffffffffffffffffffffffffffffffffffffff161461035e576040517f08c379a000000000000000000000000000000000000000000000000000000000815260040161035590611ab6565b60405180910390fd5b600073ffffffffffffffffffffffffffffffffffffffff1660008054906101000a900473ffffffffffffffffffffffffffffffffffffffff1673ffffffffffffffffffffffffffffffffffffffff167f8be0079c531659141344cd1fd0a4f28419497f9722a3daafe3b4186f6b6457e060405160405180910390a360008060006101000a81548173ffffffffffffffffffffffffffffffffffffffff021916908373ffffffffffffffffffffffffffffffffffffffff160217905550565b7f000000000000000000000000000000000000000000000000000000000000000081565b60008060009054906101000a900473ffffffffffffffffffffffffffffffffffffffff16905090565b60026020528060005260406000206000915054906101000a900460ff1681565b6060600180548060200260200160405190810160405280929190818152602001828054801561050d57602002820191906000526020600020905b8160009054906101000a900473ffffffffffffffffffffffffffffffffffffffff1673ffffffffffffffffffffffffffffffffffffffff16815260200190600101908083116104c3575b5050505050905090565b61051f610c08565b73ffffffffffffffffffffffffffffffffffffffff1660008054906101000a900473ffffffffffffffffffffffffffffffffffffffff1673ffffffffffffffffffffffffffffffffffffffff16146105ac576040517f08c379a00000000000000000000000000000000000000000000000000000000081526004016105a390611ab6565b60405180910390fd5b80600190805190602001906105c2929190610f35565b5050565b7f000000000000000000000000000000000000000000000000000000000000000081565b6105f2610c08565b73ffffffffffffffffffffffffffffffffffffffff1660008054906101000a900473ffffffffffffffffffffffffffffffffffffffff1673ffffffffffffffffffffffffffffffffffffffff161461067f576040517f08c379a000000000000000000000000000000000000000000000000000000000815260040161067690611ab6565b60405180910390fd5b60005b828290508110156106d85760006002600085858581811061069f57fe5b90506020020135815260200190815260200160002060006101000a81548160ff0219169083151502179055508080600101915050610682565b505050565b600260008363ffffffff16815260200190815260200160002060009054906101000a900460ff1615610744576040517f08c379a000000000000000000000000000000000000000000000000000000000815260040161073b90611ad6565b60405180910390fd5b6001600260008463ffffffff16815260200190815260200160002060006101000a81548160ff0219169083151502179055506000853385853060405160200161079195949392919061181b565b6040516020818303038152906040528051906020012090506107b38183610c10565b600073ffffffffffffffffffffffffffffffffffffffff168673ffffffffffffffffffffffffffffffffffffffff1614156108e75760008573ffffffffffffffffffffffffffffffffffffffff1685600067ffffffffffffffff8111801561081a57600080fd5b506040519080825280601f01601f19166020018201604052801561084d5781602001600182028036833780820191505090505b5060405161085b919061187a565b60006040518083038185875af1925050503d8060008114610898576040519150601f19603f3d011682016040523d82523d6000602084013e61089d565b606091505b50509050806108e1576040517f08c379a00000000000000000000000000000000000000000000000000000000081526004016108d890611a36565b60405180910390fd5b50610a3e565b600173ffffffffffffffffffffffffffffffffffffffff168673ffffffffffffffffffffffffffffffffffffffff1614156109ae577f000000000000000000000000000000000000000000000000000000000000000073ffffffffffffffffffffffffffffffffffffffff166340c10f1933866040518363ffffffff1660e01b81526004016109779291906118ac565b600060405180830381600087803b15801561099157600080fd5b505af11580156109a5573d6000803e3d6000fd5b50505050610a3d565b8573ffffffffffffffffffffffffffffffffffffffff1663a9059cbb86866040518363ffffffff1660e01b81526004016109e99291906118d5565b602060405180830381600087803b158015610a0357600080fd5b505af1158015610a17573d6000803e3d6000fd5b505050506040513d601f19601f82011682018060405250810190610a3b91906112a7565b505b5b505050505050565b610a4e610c08565b73ffffffffffffffffffffffffffffffffffffffff1660008054906101000a900473ffffffffffffffffffffffffffffffffffffffff1673ffffffffffffffffffffffffffffffffffffffff1614610adb576040517f08c379a0000000000000000000000000000000000000000000000000000000008152600401610ad290611ab6565b60405180910390fd5b600073ffffffffffffffffffffffffffffffffffffffff168173ffffffffffffffffffffffffffffffffffffffff161415610b4b576040517f08c379a0000000000000000000000000000000000000000000000000000000008152600401610b4290611a16565b60405180910390fd5b8073ffffffffffffffffffffffffffffffffffffffff1660008054906101000a900473ffffffffffffffffffffffffffffffffffffffff1673ffffffffffffffffffffffffffffffffffffffff167f8be0079c531659141344cd1fd0a4f28419497f9722a3daafe3b4186f6b6457e060405160405180910390a3806000806101000a81548173ffffffffffffffffffffffffffffffffffffffff021916908373ffffffffffffffffffffffffffffffffffffffff16021790555050565b600033905090565b805160018054905014610c58576040517f08c379a0000000000000000000000000000000000000000000000000000000008152600401610c4f90611a96565b60405180910390fd5b60005b600180549050811015610d3f5760018181548110610c7557fe5b9060005260206000200160009054906101000a900473ffffffffffffffffffffffffffffffffffffffff1673ffffffffffffffffffffffffffffffffffffffff16610cdc838381518110610cc557fe5b602002602001015185610d4490919063ffffffff16565b73ffffffffffffffffffffffffffffffffffffffff1614610d32576040517f08c379a0000000000000000000000000000000000000000000000000000000008152600401610d29906119d6565b60405180910390fd5b8080600101915050610c5b565b505050565b60006041825114610d8a576040517f08c379a0000000000000000000000000000000000000000000000000000000008152600401610d81906119f6565b60405180910390fd5b60008060006020850151925060408501519150606085015160001a90507f7fffffffffffffffffffffffffffffff5d576e7357a4501ddfe92f46681b20a08260001c1115610e0d576040517f08c379a0000000000000000000000000000000000000000000000000000000008152600401610e0490611a56565b60405180910390fd5b601b8160ff1614158015610e255750601c8160ff1614155b15610e65576040517f08c379a0000000000000000000000000000000000000000000000000000000008152600401610e5c90611a76565b60405180910390fd5b600060018783868660405160008152602001604052604051610e8a949392919061193b565b6020604051602081039080840390855afa158015610eac573d6000803e3d6000fd5b505050602060405103519050600073ffffffffffffffffffffffffffffffffffffffff168173ffffffffffffffffffffffffffffffffffffffff161415610f28576040517f08c379a0000000000000000000000000000000000000000000000000000000008152600401610f1f906119b6565b60405180910390fd5b8094505050505092915050565b828054828255906000526020600020908101928215610fae579160200282015b82811115610fad5782518260006101000a81548173ffffffffffffffffffffffffffffffffffffffff021916908373ffffffffffffffffffffffffffffffffffffffff16021790555091602001919060010190610f55565b5b509050610fbb9190610fbf565b5090565b5b80821115610ff657600081816101000a81549073ffffffffffffffffffffffffffffffffffffffff021916905550600101610fc0565b5090565b60008135905061100981611de2565b92915050565b600082601f83011261102057600080fd5b813561103361102e82611b23565b611af6565b9150818183526020840193506020810190508385602084028201111561105857600080fd5b60005b83811015611088578161106e8882610ffa565b84526020840193506020830192505060018101905061105b565b5050505092915050565b600082601f8301126110a357600080fd5b81356110b66110b182611b4b565b611af6565b9150818183526020840193506020810190508360005b838110156110fc57813586016110e28882611165565b8452602084019350602083019250506001810190506110cc565b5050505092915050565b60008083601f84011261111857600080fd5b8235905067ffffffffffffffff81111561113157600080fd5b60208301915083602082028301111561114957600080fd5b9250929050565b60008151905061115f81611df9565b92915050565b600082601f83011261117657600080fd5b813561118961118482611b73565b611af6565b915080825260208301602083018583830111156111a557600080fd5b6111b0838284611d34565b50505092915050565b6000813590506111c881611e10565b92915050565b6000813590506111dd81611e27565b92915050565b6000813590506111f281611e3e565b92915050565b60006020828403121561120a57600080fd5b600061121884828501610ffa565b91505092915050565b60006020828403121561123357600080fd5b600082013567ffffffffffffffff81111561124d57600080fd5b6112598482850161100f565b91505092915050565b6000806020838503121561127557600080fd5b600083013567ffffffffffffffff81111561128f57600080fd5b61129b85828601611106565b92509250509250929050565b6000602082840312156112b957600080fd5b60006112c784828501611150565b91505092915050565b600080600080600060a086880312156112e857600080fd5b60006112f6888289016111b9565b955050602061130788828901610ffa565b9450506040611318888289016111ce565b9350506060611329888289016111e3565b925050608086013567ffffffffffffffff81111561134657600080fd5b61135288828901611092565b9150509295509295909350565b60006020828403121561137157600080fd5b600061137f848285016111ce565b91505092915050565b600061139483836113c6565b60208301905092915050565b6113a981611c92565b82525050565b6113c06113bb82611c11565b611d88565b82525050565b6113cf81611bff565b82525050565b6113de81611bff565b82525050565b6113f56113f082611bff565b611d76565b82525050565b600061140682611baf565b6114108185611bd2565b935061141b83611b9f565b8060005b8381101561144c5781516114338882611388565b975061143e83611bc5565b92505060018101905061141f565b5085935050505092915050565b61146281611c23565b82525050565b61147181611c2f565b82525050565b600061148282611bba565b61148c8185611be3565b935061149c818560208601611d43565b80840191505092915050565b6114b96114b482611ca4565b611d88565b82525050565b6114c881611cc8565b82525050565b6114d781611cec565b82525050565b60006114ea601883611bee565b91507f45434453413a20696e76616c6964207369676e617475726500000000000000006000830152602082019050919050565b600061152a601183611bee565b91507f696e76616c6964207369676e61747572650000000000000000000000000000006000830152602082019050919050565b600061156a601f83611bee565b91507f45434453413a20696e76616c6964207369676e6174757265206c656e677468006000830152602082019050919050565b60006115aa602683611bee565b91507f4f776e61626c653a206e6577206f776e657220697320746865207a65726f206160008301527f64647265737300000000000000000000000000000000000000000000000000006020830152604082019050919050565b6000611610601583611bee565b91507f4574686572207472616e73666572206661696c656400000000000000000000006000830152602082019050919050565b6000611650602283611bee565b91507f45434453413a20696e76616c6964207369676e6174757265202773272076616c60008301527f75650000000000000000000000000000000000000000000000000000000000006020830152604082019050919050565b60006116b6602283611bee565b91507f45434453413a20696e76616c6964207369676e6174757265202776272076616c60008301527f75650000000000000000000000000000000000000000000000000000000000006020830152604082019050919050565b600061171c601c83611bee565b91507f696e76616c6964206e756d626572206f66207369676e617475726573000000006000830152602082019050919050565b600061175c602083611bee565b91507f4f776e61626c653a2063616c6c6572206973206e6f7420746865206f776e65726000830152602082019050919050565b600061179c601c83611bee565b91507f696e76616c696420666f726569676e5472616e73616374696f6e4964000000006000830152602082019050919050565b6117d881611c6b565b82525050565b6117ef6117ea82611c6b565b611dac565b82525050565b61180661180182611c75565b611db6565b82525050565b61181581611c85565b82525050565b600061182782886113e4565b60148201915061183782876113af565b60148201915061184782866117de565b60208201915061185782856117f5565b60048201915061186782846114a8565b6014820191508190509695505050505050565b60006118868284611477565b915081905092915050565b60006020820190506118a660008301846113d5565b92915050565b60006040820190506118c160008301856113a0565b6118ce60208301846117cf565b9392505050565b60006040820190506118ea60008301856113d5565b6118f760208301846117cf565b9392505050565b6000602082019050818103600083015261191881846113fb565b905092915050565b60006020820190506119356000830184611459565b92915050565b60006080820190506119506000830187611468565b61195d602083018661180c565b61196a6040830185611468565b6119776060830184611468565b95945050505050565b600060208201905061199560008301846114bf565b92915050565b60006020820190506119b060008301846114ce565b92915050565b600060208201905081810360008301526119cf816114dd565b9050919050565b600060208201905081810360008301526119ef8161151d565b9050919050565b60006020820190508181036000830152611a0f8161155d565b9050919050565b60006020820190508181036000830152611a2f8161159d565b9050919050565b60006020820190508181036000830152611a4f81611603565b9050919050565b60006020820190508181036000830152611a6f81611643565b9050919050565b60006020820190508181036000830152611a8f816116a9565b9050919050565b60006020820190508181036000830152611aaf8161170f565b9050919050565b60006020820190508181036000830152611acf8161174f565b9050919050565b60006020820190508181036000830152611aef8161178f565b9050919050565b6000604051905081810181811067ffffffffffffffff82111715611b1957600080fd5b8060405250919050565b600067ffffffffffffffff821115611b3a57600080fd5b602082029050602081019050919050565b600067ffffffffffffffff821115611b6257600080fd5b602082029050602081019050919050565b600067ffffffffffffffff821115611b8a57600080fd5b601f19601f8301169050602081019050919050565b6000819050602082019050919050565b600081519050919050565b600081519050919050565b6000602082019050919050565b600082825260208201905092915050565b600081905092915050565b600082825260208201905092915050565b6000611c0a82611c4b565b9050919050565b6000611c1c82611c4b565b9050919050565b60008115159050919050565b6000819050919050565b6000611c4482611bff565b9050919050565b600073ffffffffffffffffffffffffffffffffffffffff82169050919050565b6000819050919050565b600063ffffffff82169050919050565b600060ff82169050919050565b6000611c9d82611d10565b9050919050565b6000611caf82611cb6565b9050919050565b6000611cc182611c4b565b9050919050565b6000611cd382611cda565b9050919050565b6000611ce582611c4b565b9050919050565b6000611cf782611cfe565b9050919050565b6000611d0982611c4b565b9050919050565b6000611d1b82611d22565b9050919050565b6000611d2d82611c4b565b9050919050565b82818337600083830152505050565b60005b83811015611d61578082015181840152602081019050611d46565b83811115611d70576000848401525b50505050565b6000611d8182611d9a565b9050919050565b6000611d9382611d9a565b9050919050565b6000611da582611dd5565b9050919050565b6000819050919050565b6000611dc182611dc8565b9050919050565b60008160e01b9050919050565b60008160601b9050919050565b611deb81611bff565b8114611df657600080fd5b50565b611e0281611c23565b8114611e0d57600080fd5b50565b611e1981611c39565b8114611e2457600080fd5b50565b611e3081611c6b565b8114611e3b57600080fd5b50565b611e4781611c75565b8114611e5257600080fd5b5056fea26469706673582212201dae3cad28aa27a90893c76433eb66cb7868c86561d1361c63ef0aeea84a6f1664736f6c634300060c003360806040523480156200001157600080fd5b506040516200244338038062002443833981810160405260408110156200003757600080fd5b81019080805160405193929190846401000000008211156200005857600080fd5b838201915060208201858111156200006f57600080fd5b82518660018202830111640100000000821117156200008d57600080fd5b8083526020830192505050908051906020019080838360005b83811015620000c3578082015181840152602081019050620000a6565b50505050905090810190601f168015620000f15780820380516001836020036101000a031916815260200191505b50604052602001805160405193929190846401000000008211156200011557600080fd5b838201915060208201858111156200012c57600080fd5b82518660018202830111640100000000821117156200014a57600080fd5b8083526020830192505050908051906020019080838360005b838110156200018057808201518184015260208101905062000163565b50505050905090810190601f168015620001ae5780820380516001836020036101000a031916815260200191505b5060405250505081818160039080519060200190620001cf929190620002e3565b508060049080519060200190620001e8929190620002e3565b506012600560006101000a81548160ff021916908360ff16021790555050506000600560016101000a81548160ff021916908315150217905550600062000234620002db60201b60201c565b905080600560026101000a81548173ffffffffffffffffffffffffffffffffffffffff021916908373ffffffffffffffffffffffffffffffffffffffff1602179055508073ffffffffffffffffffffffffffffffffffffffff16600073ffffffffffffffffffffffffffffffffffffffff167f8be0079c531659141344cd1fd0a4f28419497f9722a3daafe3b4186f6b6457e060405160405180910390a350505062000389565b600033905090565b828054600181600116156101000203166002900490600052602060002090601f016020900481019282601f106200032657805160ff191683800117855562000357565b8280016001018555821562000357579182015b828111156200035657825182559160200191906001019062000339565b5b5090506200036691906200036a565b5090565b5b80821115620003855760008160009055506001016200036b565b5090565b6120aa80620003996000396000f3fe608060405234801561001057600080fd5b506004361061012c5760003560e01c806370a08231116100ad57806395d89b411161007157806395d89b41146104d3578063a457c2d714610556578063a9059cbb146105ba578063dd62ed3e1461061e578063f2fde38b146106965761012c565b806370a08231146103e5578063715018a61461043d57806379cc6790146104475780638456cb59146104955780638da5cb5b1461049f5761012c565b806339509351116100f457806339509351146102db5780633f4ba83a1461033f57806340c10f191461034957806342966c68146103975780635c975abb146103c55761012c565b806306fdde0314610131578063095ea7b3146101b457806318160ddd1461021857806323b872dd14610236578063313ce567146102ba575b600080fd5b6101396106da565b6040518080602001828103825283818151815260200191508051906020019080838360005b8381101561017957808201518184015260208101905061015e565b50505050905090810190601f1680156101a65780820380516001836020036101000a031916815260200191505b509250505060405180910390f35b610200600480360360408110156101ca57600080fd5b81019080803573ffffffffffffffffffffffffffffffffffffffff1690602001909291908035906020019092919050505061077c565b60405180821515815260200191505060405180910390f35b61022061079a565b6040518082815260200191505060405180910390f35b6102a26004803603606081101561024c57600080fd5b81019080803573ffffffffffffffffffffffffffffffffffffffff169060200190929190803573ffffffffffffffffffffffffffffffffffffffff169060200190929190803590602001909291905050506107a4565b60405180821515815260200191505060405180910390f35b6102c261087d565b604051808260ff16815260200191505060405180910390f35b610327600480360360408110156102f157600080fd5b81019080803573ffffffffffffffffffffffffffffffffffffffff16906020019092919080359060200190929190505050610894565b60405180821515815260200191505060405180910390f35b610347610947565b005b6103956004803603604081101561035f57600080fd5b81019080803573ffffffffffffffffffffffffffffffffffffffff16906020019092919080359060200190929190505050610a1b565b005b6103c3600480360360208110156103ad57600080fd5b8101908080359060200190929190505050610af3565b005b6103cd610b07565b60405180821515815260200191505060405180910390f35b610427600480360360208110156103fb57600080fd5b81019080803573ffffffffffffffffffffffffffffffffffffffff169060200190929190505050610b1e565b6040518082815260200191505060405180910390f35b610445610b66565b005b6104936004803603604081101561045d57600080fd5b81019080803573ffffffffffffffffffffffffffffffffffffffff16906020019092919080359060200190929190505050610cf1565b005b61049d610d53565b005b6104a7610e27565b604051808273ffffffffffffffffffffffffffffffffffffffff16815260200191505060405180910390f35b6104db610e51565b6040518080602001828103825283818151815260200191508051906020019080838360005b8381101561051b578082015181840152602081019050610500565b50505050905090810190601f1680156105485780820380516001836020036101000a031916815260200191505b509250505060405180910390f35b6105a26004803603604081101561056c57600080fd5b81019080803573ffffffffffffffffffffffffffffffffffffffff16906020019092919080359060200190929190505050610ef3565b60405180821515815260200191505060405180910390f35b610606600480360360408110156105d057600080fd5b81019080803573ffffffffffffffffffffffffffffffffffffffff16906020019092919080359060200190929190505050610fc0565b60405180821515815260200191505060405180910390f35b6106806004803603604081101561063457600080fd5b81019080803573ffffffffffffffffffffffffffffffffffffffff169060200190929190803573ffffffffffffffffffffffffffffffffffffffff169060200190929190505050610fde565b6040518082815260200191505060405180910390f35b6106d8600480360360208110156106ac57600080fd5b81019080803573ffffffffffffffffffffffffffffffffffffffff169060200190929190505050611065565b005b606060038054600181600116156101000203166002900480601f0160208091040260200160405190810160405280929190818152602001828054600181600116156101000203166002900480156107725780601f1061074757610100808354040283529160200191610772565b820191906000526020600020905b81548152906001019060200180831161075557829003601f168201915b5050505050905090565b6000610790610789611275565b848461127d565b6001905092915050565b6000600254905090565b60006107b1848484611474565b610872846107bd611275565b61086d85604051806060016040528060288152602001611f7060289139600160008b73ffffffffffffffffffffffffffffffffffffffff1673ffffffffffffffffffffffffffffffffffffffff1681526020019081526020016000206000610823611275565b73ffffffffffffffffffffffffffffffffffffffff1673ffffffffffffffffffffffffffffffffffffffff168152602001908152602001600020546117359092919063ffffffff16565b61127d565b600190509392505050565b6000600560009054906101000a900460ff16905090565b600061093d6108a1611275565b8461093885600160006108b2611275565b73ffffffffffffffffffffffffffffffffffffffff1673ffffffffffffffffffffffffffffffffffffffff16815260200190815260200160002060008973ffffffffffffffffffffffffffffffffffffffff1673ffffffffffffffffffffffffffffffffffffffff168152602001908152602001600020546117f590919063ffffffff16565b61127d565b6001905092915050565b61094f611275565b73ffffffffffffffffffffffffffffffffffffffff16600560029054906101000a900473ffffffffffffffffffffffffffffffffffffffff1673ffffffffffffffffffffffffffffffffffffffff1614610a11576040517f08c379a00000000000000000000000000000000000000000000000000000000081526004018080602001828103825260208152602001807f4f776e61626c653a2063616c6c6572206973206e6f7420746865206f776e657281525060200191505060405180910390fd5b610a1961187d565b565b610a23611275565b73ffffffffffffffffffffffffffffffffffffffff16600560029054906101000a900473ffffffffffffffffffffffffffffffffffffffff1673ffffffffffffffffffffffffffffffffffffffff1614610ae5576040517f08c379a00000000000000000000000000000000000000000000000000000000081526004018080602001828103825260208152602001807f4f776e61626c653a2063616c6c6572206973206e6f7420746865206f776e657281525060200191505060405180910390fd5b610aef8282611970565b5050565b610b04610afe611275565b82611b37565b50565b6000600560019054906101000a900460ff16905090565b60008060008373ffffffffffffffffffffffffffffffffffffffff1673ffffffffffffffffffffffffffffffffffffffff168152602001908152602001600020549050919050565b610b6e611275565b73ffffffffffffffffffffffffffffffffffffffff16600560029054906101000a900473ffffffffffffffffffffffffffffffffffffffff1673ffffffffffffffffffffffffffffffffffffffff1614610c30576040517f08c379a00000000000000000000000000000000000000000000000000000000081526004018080602001828103825260208152602001807f4f776e61626c653a2063616c6c6572206973206e6f7420746865206f776e657281525060200191505060405180910390fd5b600073ffffffffffffffffffffffffffffffffffffffff16600560029054906101000a900473ffffffffffffffffffffffffffffffffffffffff1673ffffffffffffffffffffffffffffffffffffffff167f8be0079c531659141344cd1fd0a4f28419497f9722a3daafe3b4186f6b6457e060405160405180910390a36000600560026101000a81548173ffffffffffffffffffffffffffffffffffffffff021916908373ffffffffffffffffffffffffffffffffffffffff160217905550565b6000610d3082604051806060016040528060248152602001611f9860249139610d2186610d1c611275565b610fde565b6117359092919063ffffffff16565b9050610d4483610d3e611275565b8361127d565b610d4e8383611b37565b505050565b610d5b611275565b73ffffffffffffffffffffffffffffffffffffffff16600560029054906101000a900473ffffffffffffffffffffffffffffffffffffffff1673ffffffffffffffffffffffffffffffffffffffff1614610e1d576040517f08c379a00000000000000000000000000000000000000000000000000000000081526004018080602001828103825260208152602001807f4f776e61626c653a2063616c6c6572206973206e6f7420746865206f776e657281525060200191505060405180910390fd5b610e25611cfb565b565b6000600560029054906101000a900473ffffffffffffffffffffffffffffffffffffffff16905090565b606060048054600181600116156101000203166002900480601f016020809104026020016040519081016040528092919081815260200182805460018160011615610100020316600290048015610ee95780601f10610ebe57610100808354040283529160200191610ee9565b820191906000526020600020905b815481529060010190602001808311610ecc57829003601f168201915b5050505050905090565b6000610fb6610f00611275565b84610fb1856040518060600160405280602581526020016120266025913960016000610f2a611275565b73ffffffffffffffffffffffffffffffffffffffff1673ffffffffffffffffffffffffffffffffffffffff16815260200190815260200160002060008a73ffffffffffffffffffffffffffffffffffffffff1673ffffffffffffffffffffffffffffffffffffffff168152602001908152602001600020546117359092919063ffffffff16565b61127d565b6001905092915050565b6000610fd4610fcd611275565b8484611474565b6001905092915050565b6000600160008473ffffffffffffffffffffffffffffffffffffffff1673ffffffffffffffffffffffffffffffffffffffff16815260200190815260200160002060008373ffffffffffffffffffffffffffffffffffffffff1673ffffffffffffffffffffffffffffffffffffffff16815260200190815260200160002054905092915050565b61106d611275565b73ffffffffffffffffffffffffffffffffffffffff16600560029054906101000a900473ffffffffffffffffffffffffffffffffffffffff1673ffffffffffffffffffffffffffffffffffffffff161461112f576040517f08c379a00000000000000000000000000000000000000000000000000000000081526004018080602001828103825260208152602001807f4f776e61626c653a2063616c6c6572206973206e6f7420746865206f776e657281525060200191505060405180910390fd5b600073ffffffffffffffffffffffffffffffffffffffff168173ffffffffffffffffffffffffffffffffffffffff1614156111b5576040517f08c379a0000000000000000000000000000000000000000000000000000000008152600401808060200182810382526026815260200180611f026026913960400191505060405180910390fd5b8073ffffffffffffffffffffffffffffffffffffffff16600560029054906101000a900473ffffffffffffffffffffffffffffffffffffffff1673ffffffffffffffffffffffffffffffffffffffff167f8be0079c531659141344cd1fd0a4f28419497f9722a3daafe3b4186f6b6457e060405160405180910390a380600560026101000a81548173ffffffffffffffffffffffffffffffffffffffff021916908373ffffffffffffffffffffffffffffffffffffffff16021790555050565b600033905090565b600073ffffffffffffffffffffffffffffffffffffffff168373ffffffffffffffffffffffffffffffffffffffff161415611303576040517f08c379a00000000000000000000000000000000000000000000000000000000081526004018080602001828103825260248152602001806120026024913960400191505060405180910390fd5b600073ffffffffffffffffffffffffffffffffffffffff168273ffffffffffffffffffffffffffffffffffffffff161415611389576040517f08c379a0000000000000000000000000000000000000000000000000000000008152600401808060200182810382526022815260200180611f286022913960400191505060405180910390fd5b80600160008573ffffffffffffffffffffffffffffffffffffffff1673ffffffffffffffffffffffffffffffffffffffff16815260200190815260200160002060008473ffffffffffffffffffffffffffffffffffffffff1673ffffffffffffffffffffffffffffffffffffffff168152602001908152602001600020819055508173ffffffffffffffffffffffffffffffffffffffff168373ffffffffffffffffffffffffffffffffffffffff167f8c5be1e5ebec7d5bd14f71427d1e84f3dd0314c0f7b2291e5b200ac8c7c3b925836040518082815260200191505060405180910390a3505050565b600073ffffffffffffffffffffffffffffffffffffffff168373ffffffffffffffffffffffffffffffffffffffff1614156114fa576040517f08c379a0000000000000000000000000000000000000000000000000000000008152600401808060200182810382526025815260200180611fdd6025913960400191505060405180910390fd5b600073ffffffffffffffffffffffffffffffffffffffff168273ffffffffffffffffffffffffffffffffffffffff161415611580576040517f08c379a0000000000000000000000000000000000000000000000000000000008152600401808060200182810382526023815260200180611ebd6023913960400191505060405180910390fd5b61158b838383611def565b6115f681604051806060016040528060268152602001611f4a602691396000808773ffffffffffffffffffffffffffffffffffffffff1673ffffffffffffffffffffffffffffffffffffffff168152602001908152602001600020546117359092919063ffffffff16565b6000808573ffffffffffffffffffffffffffffffffffffffff1673ffffffffffffffffffffffffffffffffffffffff16815260200190815260200160002081905550611689816000808573ffffffffffffffffffffffffffffffffffffffff1673ffffffffffffffffffffffffffffffffffffffff168152602001908152602001600020546117f590919063ffffffff16565b6000808473ffffffffffffffffffffffffffffffffffffffff1673ffffffffffffffffffffffffffffffffffffffff168152602001908152602001600020819055508173ffffffffffffffffffffffffffffffffffffffff168373ffffffffffffffffffffffffffffffffffffffff167fddf252ad1be2c89b69c2b068fc378daa952ba7f163c4a11628f55a4df523b3ef836040518082815260200191505060405180910390a3505050565b60008383111582906117e2576040517f08c379a00000000000000000000000000000000000000000000000000000000081526004018080602001828103825283818151815260200191508051906020019080838360005b838110156117a757808201518184015260208101905061178c565b50505050905090810190601f1680156117d45780820380516001836020036101000a031916815260200191505b509250505060405180910390fd5b5060008385039050809150509392505050565b600080828401905083811015611873576040517f08c379a000000000000000000000000000000000000000000000000000000000815260040180806020018281038252601b8152602001807f536166654d6174683a206164646974696f6e206f766572666c6f77000000000081525060200191505060405180910390fd5b8091505092915050565b600560019054906101000a900460ff166118ff576040517f08c379a00000000000000000000000000000000000000000000000000000000081526004018080602001828103825260148152602001807f5061757361626c653a206e6f742070617573656400000000000000000000000081525060200191505060405180910390fd5b6000600560016101000a81548160ff0219169083151502179055507f5db9ee0a495bf2e6ff9c91a7834c1ba4fdd244a5e8aa4e537bd38aeae4b073aa611943611275565b604051808273ffffffffffffffffffffffffffffffffffffffff16815260200191505060405180910390a1565b600073ffffffffffffffffffffffffffffffffffffffff168273ffffffffffffffffffffffffffffffffffffffff161415611a13576040517f08c379a000000000000000000000000000000000000000000000000000000000815260040180806020018281038252601f8152602001807f45524332303a206d696e7420746f20746865207a65726f20616464726573730081525060200191505060405180910390fd5b611a1f60008383611def565b611a34816002546117f590919063ffffffff16565b600281905550611a8b816000808573ffffffffffffffffffffffffffffffffffffffff1673ffffffffffffffffffffffffffffffffffffffff168152602001908152602001600020546117f590919063ffffffff16565b6000808473ffffffffffffffffffffffffffffffffffffffff1673ffffffffffffffffffffffffffffffffffffffff168152602001908152602001600020819055508173ffffffffffffffffffffffffffffffffffffffff16600073ffffffffffffffffffffffffffffffffffffffff167fddf252ad1be2c89b69c2b068fc378daa952ba7f163c4a11628f55a4df523b3ef836040518082815260200191505060405180910390a35050565b600073ffffffffffffffffffffffffffffffffffffffff168273ffffffffffffffffffffffffffffffffffffffff161415611bbd576040517f08c379a0000000000000000000000000000000000000000000000000000000008152600401808060200182810382526021815260200180611fbc6021913960400191505060405180910390fd5b611bc982600083611def565b611c3481604051806060016040528060228152602001611ee0602291396000808673ffffffffffffffffffffffffffffffffffffffff1673ffffffffffffffffffffffffffffffffffffffff168152602001908152602001600020546117359092919063ffffffff16565b6000808473ffffffffffffffffffffffffffffffffffffffff1673ffffffffffffffffffffffffffffffffffffffff16815260200190815260200160002081905550611c8b81600254611dff90919063ffffffff16565b600281905550600073ffffffffffffffffffffffffffffffffffffffff168273ffffffffffffffffffffffffffffffffffffffff167fddf252ad1be2c89b69c2b068fc378daa952ba7f163c4a11628f55a4df523b3ef836040518082815260200191505060405180910390a35050565b600560019054906101000a900460ff1615611d7e576040517f08c379a00000000000000000000000000000000000000000000000000000000081526004018080602001828103825260108152602001807f5061757361626c653a207061757365640000000000000000000000000000000081525060200191505060405180910390fd5b6001600560016101000a81548160ff0219169083151502179055507f62e78cea01bee320cd4e420270b5ea74000d11b0c9f74754ebdbfc544b05a258611dc2611275565b604051808273ffffffffffffffffffffffffffffffffffffffff16815260200191505060405180910390a1565b611dfa838383611e49565b505050565b6000611e4183836040518060400160405280601e81526020017f536166654d6174683a207375627472616374696f6e206f766572666c6f770000815250611735565b905092915050565b611e54838383611eb7565b611e5c610b07565b15611eb2576040517f08c379a000000000000000000000000000000000000000000000000000000000815260040180806020018281038252602a81526020018061204b602a913960400191505060405180910390fd5b505050565b50505056fe45524332303a207472616e7366657220746f20746865207a65726f206164647265737345524332303a206275726e20616d6f756e7420657863656564732062616c616e63654f776e61626c653a206e6577206f776e657220697320746865207a65726f206164647265737345524332303a20617070726f766520746f20746865207a65726f206164647265737345524332303a207472616e7366657220616d6f756e7420657863656564732062616c616e636545524332303a207472616e7366657220616d6f756e74206578636565647320616c6c6f77616e636545524332303a206275726e20616d6f756e74206578636565647320616c6c6f77616e636545524332303a206275726e2066726f6d20746865207a65726f206164647265737345524332303a207472616e736665722066726f6d20746865207a65726f206164647265737345524332303a20617070726f76652066726f6d20746865207a65726f206164647265737345524332303a2064656372656173656420616c6c6f77616e63652062656c6f77207a65726f45524332305061757361626c653a20746f6b656e207472616e73666572207768696c6520706175736564a264697066735822122063a644f807c6c7fcb33a4a2b7e1fffce56eee2f8804a1d95c660da1b7fc776d964736f6c634300060c0033",
  "linkReferences": {},
  "deployedLinkReferences": {}
}